{
  "contractName": "LuxAuction",
  "abi": [
    {
      "inputs": [],
      "stateMutability": "nonpayable",
      "type": "constructor"
    },
    {
      "anonymous": false,
      "inputs": [
        {
          "indexed": false,
          "internalType": "address",
          "name": "_highestBidder",
          "type": "address"
        },
        {
          "indexed": false,
          "internalType": "uint256",
          "name": "refundAmount",
          "type": "uint256"
        }
      ],
      "name": "AuctionCancelled",
      "type": "event"
    },
    {
      "anonymous": false,
      "inputs": [
        {
          "indexed": false,
          "internalType": "address",
          "name": "winner",
          "type": "address"
        }
      ],
      "name": "AuctionEnded",
      "type": "event"
    },
    {
      "anonymous": false,
      "inputs": [
        {
          "indexed": false,
          "internalType": "address",
          "name": "bidder",
          "type": "address"
        },
        {
          "indexed": false,
          "internalType": "uint256",
          "name": "amount",
          "type": "uint256"
        }
      ],
      "name": "PlacedBid",
      "type": "event"
    },
    {
      "inputs": [],
      "name": "_auctionBeneficiary",
      "outputs": [
        {
          "internalType": "address",
          "name": "",
          "type": "address"
        }
      ],
      "stateMutability": "view",
      "type": "function"
    },
    {
      "inputs": [],
      "name": "_contractToMint",
      "outputs": [
        {
          "internalType": "address",
          "name": "",
          "type": "address"
        }
      ],
      "stateMutability": "view",
      "type": "function"
    },
    {
      "inputs": [],
      "name": "_currentTopBid",
      "outputs": [
        {
          "internalType": "uint256",
          "name": "",
          "type": "uint256"
        }
      ],
      "stateMutability": "view",
      "type": "function"
    },
    {
      "inputs": [],
      "name": "_highestBidder",
      "outputs": [
        {
          "internalType": "address",
          "name": "",
          "type": "address"
        }
      ],
      "stateMutability": "view",
      "type": "function"
    },
    {
      "inputs": [],
      "name": "_isLive",
      "outputs": [
        {
          "internalType": "bool",
          "name": "",
          "type": "bool"
        }
      ],
      "stateMutability": "view",
      "type": "function"
    },
    {
      "inputs": [],
      "name": "_minBid",
      "outputs": [
        {
          "internalType": "uint256",
          "name": "",
          "type": "uint256"
        }
      ],
      "stateMutability": "view",
      "type": "function"
    },
    {
      "inputs": [],
      "name": "_reservePrice",
      "outputs": [
        {
          "internalType": "uint256",
          "name": "",
          "type": "uint256"
        }
      ],
      "stateMutability": "view",
      "type": "function"
    },
    {
      "inputs": [],
      "name": "_startingPrice",
      "outputs": [
        {
          "internalType": "uint256",
          "name": "",
          "type": "uint256"
        }
      ],
      "stateMutability": "view",
      "type": "function"
    },
    {
      "inputs": [],
      "name": "_tokenIdToWin",
      "outputs": [
        {
          "internalType": "uint256",
          "name": "",
          "type": "uint256"
        }
      ],
      "stateMutability": "view",
      "type": "function"
    },
    {
      "inputs": [
        {
          "internalType": "address",
          "name": "contractToMint",
          "type": "address"
        },
        {
          "internalType": "uint256",
          "name": "tokenIdToWin",
          "type": "uint256"
        },
        {
          "internalType": "uint256",
          "name": "startingPrice",
          "type": "uint256"
        },
        {
          "internalType": "uint256",
          "name": "reservePrice",
          "type": "uint256"
        },
        {
          "internalType": "uint256",
          "name": "minBid",
          "type": "uint256"
        },
        {
          "internalType": "address",
          "name": "auctionBeneficiary",
          "type": "address"
        }
      ],
      "name": "setUpAuction",
      "outputs": [],
      "stateMutability": "nonpayable",
      "type": "function"
    },
    {
      "inputs": [],
      "name": "startAuction",
      "outputs": [],
      "stateMutability": "nonpayable",
      "type": "function"
    },
    {
      "inputs": [
        {
          "internalType": "uint256",
          "name": "amount",
          "type": "uint256"
        }
      ],
      "name": "placeBid",
      "outputs": [],
      "stateMutability": "payable",
      "type": "function"
    },
    {
      "inputs": [],
      "name": "closeAuction",
      "outputs": [],
      "stateMutability": "nonpayable",
      "type": "function"
    },
    {
      "inputs": [],
      "name": "cancelAuction",
      "outputs": [],
      "stateMutability": "nonpayable",
      "type": "function"
    },
    {
      "inputs": [
        {
          "internalType": "address",
          "name": "recipient",
          "type": "address"
        }
      ],
      "name": "withdrawContractFunds",
      "outputs": [],
      "stateMutability": "nonpayable",
      "type": "function"
    },
    {
      "inputs": [
        {
          "internalType": "address",
          "name": "newAdmin",
          "type": "address"
        }
      ],
      "name": "addAdmin",
      "outputs": [],
      "stateMutability": "nonpayable",
      "type": "function"
    }
  ],
  "bytecode": "0x608060405234801561001057600080fd5b506001600860003373ffffffffffffffffffffffffffffffffffffffff1673ffffffffffffffffffffffffffffffffffffffff16815260200190815260200160002060006101000a81548160ff021916908315150217905550611af6806100786000396000f3fe6080604052600436106100f35760003560e01c8063704802751161008a5780639db387ff116100595780639db387ff146102ab578063b1b5ab78146102d6578063e3364bf614610301578063eb8addc21461032c576100f3565b806370480275146102265780638fa8b7901461024f5780639979ef45146102665780639ac5525514610282576100f3565b806327726e83116100c657806327726e83146101a4578063378252f2146101cf5780633a8262de146101e65780636b64c7691461020f576100f3565b8063170f5892146100f8578063179474ac146101235780631cd5c9d81461014e578063251d9b0d14610179575b600080fd5b34801561010457600080fd5b5061010d610357565b60405161011a919061105e565b60405180910390f35b34801561012f57600080fd5b5061013861037d565b604051610145919061105e565b60405180910390f35b34801561015a57600080fd5b506101636103a3565b6040516101709190611092565b60405180910390f35b34801561018557600080fd5b5061018e6103a9565b60405161019b9190611092565b60405180910390f35b3480156101b057600080fd5b506101b96103af565b6040516101c69190611092565b60405180910390f35b3480156101db57600080fd5b506101e46103b5565b005b3480156101f257600080fd5b5061020d600480360381019061020891906110de565b6106cf565b005b34801561021b57600080fd5b506102246107a5565b005b34801561023257600080fd5b5061024d600480360381019061024891906110de565b61089e565b005b34801561025b57600080fd5b50610264610985565b005b610280600480360381019061027b9190611137565b610ae2565b005b34801561028e57600080fd5b506102a960048036038101906102a49190611164565b610ca9565b005b3480156102b757600080fd5b506102c0610e94565b6040516102cd9190611092565b60405180910390f35b3480156102e257600080fd5b506102eb610e9a565b6040516102f89190611092565b60405180910390f35b34801561030d57600080fd5b50610316610ea0565b604051610323919061105e565b60405180910390f35b34801561033857600080fd5b50610341610ec6565b60405161034e919061120c565b60405180910390f35b600760009054906101000a900473ffffffffffffffffffffffffffffffffffffffff1681565b600560009054906101000a900473ffffffffffffffffffffffffffffffffffffffff1681565b60005481565b60035481565b60045481565b600860003373ffffffffffffffffffffffffffffffffffffffff1673ffffffffffffffffffffffffffffffffffffffff16815260200190815260200160002060009054906101000a900460ff16610441576040517f08c379a0000000000000000000000000000000000000000000000000000000008152600401610438906112aa565b60405180910390fd5b600760149054906101000a900460ff16610490576040517f08c379a000000000000000000000000000000000000000000000000000000000815260040161048790611316565b60405180910390fd5b600073ffffffffffffffffffffffffffffffffffffffff16600760009054906101000a900473ffffffffffffffffffffffffffffffffffffffff1673ffffffffffffffffffffffffffffffffffffffff1603610521576040517f08c379a0000000000000000000000000000000000000000000000000000000008152600401610518906113a8565b60405180910390fd5b600154600354106106c457600560009054906101000a900473ffffffffffffffffffffffffffffffffffffffff1673ffffffffffffffffffffffffffffffffffffffff1663156e29f6600660009054906101000a900473ffffffffffffffffffffffffffffffffffffffff1660045460016040518463ffffffff1660e01b81526004016105b09392919061140d565b600060405180830381600087803b1580156105ca57600080fd5b505af11580156105de573d6000803e3d6000fd5b50505050600760009054906101000a900473ffffffffffffffffffffffffffffffffffffffff1673ffffffffffffffffffffffffffffffffffffffff166108fc479081150290604051600060405180830381858888f1935050505015801561064a573d6000803e3d6000fd5b506000600760146101000a81548160ff0219169083151502179055507f662949f3eed0ba9168ccbbab84908b33b7966e1e59c2913a90b4faac442e8e93600660009054906101000a900473ffffffffffffffffffffffffffffffffffffffff166040516106b7919061105e565b60405180910390a16106cd565b6106cc610985565b5b565b600860003373ffffffffffffffffffffffffffffffffffffffff1673ffffffffffffffffffffffffffffffffffffffff16815260200190815260200160002060009054906101000a900460ff1661075b576040517f08c379a0000000000000000000000000000000000000000000000000000000008152600401610752906114b6565b60405180910390fd5b8073ffffffffffffffffffffffffffffffffffffffff166108fc479081150290604051600060405180830381858888f193505050501580156107a1573d6000803e3d6000fd5b5050565b600860003373ffffffffffffffffffffffffffffffffffffffff1673ffffffffffffffffffffffffffffffffffffffff16815260200190815260200160002060009054906101000a900460ff16610831576040517f08c379a000000000000000000000000000000000000000000000000000000000815260040161082890611548565b60405180910390fd5b600760149054906101000a900460ff1615610881576040517f08c379a0000000000000000000000000000000000000000000000000000000008152600401610878906115b4565b60405180910390fd5b6001600760146101000a81548160ff021916908315150217905550565b600860003373ffffffffffffffffffffffffffffffffffffffff1673ffffffffffffffffffffffffffffffffffffffff16815260200190815260200160002060009054906101000a900460ff1661092a576040517f08c379a000000000000000000000000000000000000000000000000000000000815260040161092190611646565b60405180910390fd5b6001600860008373ffffffffffffffffffffffffffffffffffffffff1673ffffffffffffffffffffffffffffffffffffffff16815260200190815260200160002060006101000a81548160ff02191690831515021790555050565b600860003373ffffffffffffffffffffffffffffffffffffffff1673ffffffffffffffffffffffffffffffffffffffff16815260200190815260200160002060009054906101000a900460ff16610a11576040517f08c379a0000000000000000000000000000000000000000000000000000000008152600401610a08906116d8565b60405180910390fd5b600760149054906101000a900460ff16610a60576040517f08c379a0000000000000000000000000000000000000000000000000000000008152600401610a579061176a565b60405180910390fd5b610a68610ed9565b6000600760146101000a81548160ff0219169083151502179055507f018b64b6242d32aa550e95d78985b938d71af5b3f10827b0683f55da16393048600660009054906101000a900473ffffffffffffffffffffffffffffffffffffffff16600354604051610ad892919061178a565b60405180910390a1565b600254600354610af291906117e2565b811015610b34576040517f08c379a0000000000000000000000000000000000000000000000000000000008152600401610b2b90611884565b60405180910390fd5b80341015610b77576040517f08c379a0000000000000000000000000000000000000000000000000000000008152600401610b6e906118f0565b60405180910390fd5b600760149054906101000a900460ff16610bc6576040517f08c379a0000000000000000000000000000000000000000000000000000000008152600401610bbd9061195c565b60405180910390fd5b600073ffffffffffffffffffffffffffffffffffffffff16600660009054906101000a900473ffffffffffffffffffffffffffffffffffffffff1673ffffffffffffffffffffffffffffffffffffffff1614610c2557610c24610ed9565b5b33600660006101000a81548173ffffffffffffffffffffffffffffffffffffffff021916908373ffffffffffffffffffffffffffffffffffffffff160217905550806003819055507fb577f3a8a95c8ad7a00ce12c6d7aef9a2832513af69d820a9ce1288af4e743d53382604051610c9e92919061178a565b60405180910390a150565b600860003373ffffffffffffffffffffffffffffffffffffffff1673ffffffffffffffffffffffffffffffffffffffff16815260200190815260200160002060009054906101000a900460ff16610d35576040517f08c379a0000000000000000000000000000000000000000000000000000000008152600401610d2c90611548565b60405180910390fd5b600073ffffffffffffffffffffffffffffffffffffffff168673ffffffffffffffffffffffffffffffffffffffff1603610da4576040517f08c379a0000000000000000000000000000000000000000000000000000000008152600401610d9b906119c8565b60405180910390fd5b85600560006101000a81548173ffffffffffffffffffffffffffffffffffffffff021916908373ffffffffffffffffffffffffffffffffffffffff1602179055508460048190555083600081905550826001819055508160028190555060006003819055506000600660006101000a81548173ffffffffffffffffffffffffffffffffffffffff021916908373ffffffffffffffffffffffffffffffffffffffff16021790555080600760006101000a81548173ffffffffffffffffffffffffffffffffffffffff021916908373ffffffffffffffffffffffffffffffffffffffff160217905550505050505050565b60025481565b60015481565b600660009054906101000a900473ffffffffffffffffffffffffffffffffffffffff1681565b600760149054906101000a900460ff1681565b600073ffffffffffffffffffffffffffffffffffffffff16600660009054906101000a900473ffffffffffffffffffffffffffffffffffffffff1673ffffffffffffffffffffffffffffffffffffffff1603610f6a576040517f08c379a0000000000000000000000000000000000000000000000000000000008152600401610f6190611a34565b60405180910390fd5b60006003541015610fb0576040517f08c379a0000000000000000000000000000000000000000000000000000000008152600401610fa790611aa0565b60405180910390fd5b600660009054906101000a900473ffffffffffffffffffffffffffffffffffffffff1673ffffffffffffffffffffffffffffffffffffffff166108fc6003549081150290604051600060405180830381858888f1935050505015801561101a573d6000803e3d6000fd5b50565b600073ffffffffffffffffffffffffffffffffffffffff82169050919050565b60006110488261101d565b9050919050565b6110588161103d565b82525050565b6000602082019050611073600083018461104f565b92915050565b6000819050919050565b61108c81611079565b82525050565b60006020820190506110a76000830184611083565b92915050565b600080fd5b6110bb8161103d565b81146110c657600080fd5b50565b6000813590506110d8816110b2565b92915050565b6000602082840312156110f4576110f36110ad565b5b6000611102848285016110c9565b91505092915050565b61111481611079565b811461111f57600080fd5b50565b6000813590506111318161110b565b92915050565b60006020828403121561114d5761114c6110ad565b5b600061115b84828501611122565b91505092915050565b60008060008060008060c08789031215611181576111806110ad565b5b600061118f89828a016110c9565b96505060206111a089828a01611122565b95505060406111b189828a01611122565b94505060606111c289828a01611122565b93505060806111d389828a01611122565b92505060a06111e489828a016110c9565b9150509295509295509295565b60008115159050919050565b611206816111f1565b82525050565b600060208201905061122160008301846111fd565b92915050565b600082825260208201905092915050565b7f4f6e6c7920616e2061646d696e2063616e20636c6f736520616e20617563746960008201527f6f6e000000000000000000000000000000000000000000000000000000000000602082015250565b6000611294602283611227565b915061129f82611238565b604082019050919050565b600060208201905081810360008301526112c381611287565b9050919050565b7f41756374696f6e20697320616c726561647920636c6f73656400000000000000600082015250565b6000611300601983611227565b915061130b826112ca565b602082019050919050565b6000602082019050818103600083015261132f816112f3565b9050919050565b7f41756374696f6e2062656e65666963696172792063616e27742062652030206160008201527f6464726573730000000000000000000000000000000000000000000000000000602082015250565b6000611392602683611227565b915061139d82611336565b604082019050919050565b600060208201905081810360008301526113c181611385565b9050919050565b6000819050919050565b6000819050919050565b60006113f76113f26113ed846113c8565b6113d2565b611079565b9050919050565b611407816113dc565b82525050565b6000606082019050611422600083018661104f565b61142f6020830185611083565b61143c60408301846113fe565b949350505050565b7f4f6e6c7920616e2061646d696e2063616e2072657472756e207468652066756e60008201527f64732061756374696f6e00000000000000000000000000000000000000000000602082015250565b60006114a0602a83611227565b91506114ab82611444565b604082019050919050565b600060208201905081810360008301526114cf81611493565b9050919050565b7f4f6e6c7920616e2061646d696e2063616e20737461727420616e20617563746960008201527f6f6e000000000000000000000000000000000000000000000000000000000000602082015250565b6000611532602283611227565b915061153d826114d6565b604082019050919050565b6000602082019050818103600083015261156181611525565b9050919050565b7f41756374696f6e20697320616c7265616479206f70656e656400000000000000600082015250565b600061159e601983611227565b91506115a982611568565b602082019050919050565b600060208201905081810360008301526115cd81611591565b9050919050565b7f4f6e6c7920616e2061646d696e2063616e2061646420616e6f74686572206f6e60008201527f6500000000000000000000000000000000000000000000000000000000000000602082015250565b6000611630602183611227565b915061163b826115d4565b604082019050919050565b6000602082019050818103600083015261165f81611623565b9050919050565b7f4f6e6c7920616e2061646d696e2063616e2063616e63656c20616e206175637460008201527f696f6e0000000000000000000000000000000000000000000000000000000000602082015250565b60006116c2602383611227565b91506116cd82611666565b604082019050919050565b600060208201905081810360008301526116f1816116b5565b9050919050565b7f596f752063616e6e6f742063616e63656c206120636c6f73656420417563746960008201527f6f6e000000000000000000000000000000000000000000000000000000000000602082015250565b6000611754602283611227565b915061175f826116f8565b604082019050919050565b6000602082019050818103600083015261178381611747565b9050919050565b600060408201905061179f600083018561104f565b6117ac6020830184611083565b9392505050565b7f4e487b7100000000000000000000000000000000000000000000000000000000600052601160045260246000fd5b60006117ed82611079565b91506117f883611079565b9250827fffffffffffffffffffffffffffffffffffffffffffffffffffffffffffffffff0382111561182d5761182c6117b3565b5b828201905092915050565b7f42696420746f6f20736d616c6c00000000000000000000000000000000000000600082015250565b600061186e600d83611227565b915061187982611838565b602082019050919050565b6000602082019050818103600083015261189d81611861565b9050919050565b7f4e6f7420656e6f7567682066756e64732073656e740000000000000000000000600082015250565b60006118da601583611227565b91506118e5826118a4565b602082019050919050565b60006020820190508181036000830152611909816118cd565b9050919050565b7f41756374696f6e20697320636c6f736564000000000000000000000000000000600082015250565b6000611946601183611227565b915061195182611910565b602082019050919050565b6000602082019050818103600083015261197581611939565b9050919050565b7f496e76616c696420636f6e747261637420616464726573730000000000000000600082015250565b60006119b2601883611227565b91506119bd8261197c565b602082019050919050565b600060208201905081810360008301526119e1816119a5565b9050919050565b7f43616e6e6f7420726566756e6420746865203020616464726573730000000000600082015250565b6000611a1e601b83611227565b9150611a29826119e8565b602082019050919050565b60006020820190508181036000830152611a4d81611a11565b9050919050565b7f43616e6e6f7420726566756e64206120626964206f6620300000000000000000600082015250565b6000611a8a601883611227565b9150611a9582611a54565b602082019050919050565b60006020820190508181036000830152611ab981611a7d565b905091905056fea26469706673582212208bb12dc4ada77c71fa1670f0c6526c2256149eb2079c94399238e3ec8fd2b68764736f6c634300080d0033",
  "immutableReferences": {},
  "source": "// SPDX-License-Identifier: MIT\n\npragma solidity >= 0.8.13;\n\nimport \"./Lux.sol\";\nimport \"@openzeppelin/contracts/token/ERC1155/IERC1155.sol\";\n\ncontract LuxAuction {\n\n    uint256 public _startingPrice;\n    uint256 public _reservePrice;\n    uint256 public _minBid;\n    uint256 public _currentTopBid;\n    uint256 public _tokenIdToWin;\n\n    address public _contractToMint;\n    address public _highestBidder;\n    address public _auctionBeneficiary;\n    \n    bool public _isLive;\n\n    mapping(address => bool) _isAdmin;\n\n    event PlacedBid( address bidder, uint256 amount);\n    event AuctionEnded (address winner);\n    event AuctionCancelled (address _highestBidder, uint256 refundAmount);\n\n\n    constructor(){\n        _isAdmin[msg.sender] = true;\n    }\n\n    function setUpAuction(\n        address contractToMint, \n        uint256 tokenIdToWin ,\n        uint256 startingPrice,\n        uint256 reservePrice,\n        uint256 minBid,\n        address auctionBeneficiary\n    )external{\n        require(_isAdmin[msg.sender], \"Only an admin can start an auction\");\n        require(contractToMint != address (0), \"Invalid contract address\");\n        _contractToMint = contractToMint;\n        _tokenIdToWin = tokenIdToWin;\n        _startingPrice = startingPrice;\n        _reservePrice = reservePrice;\n        _minBid = minBid;\n        _currentTopBid = 0;\n        _highestBidder = address(0);\n        _auctionBeneficiary = auctionBeneficiary;\n    }\n\n    function startAuction()external{\n        require(_isAdmin[msg.sender], \"Only an admin can start an auction\");\n        require(!_isLive, \"Auction is already opened\");\n        _isLive = true;\n    }\n\n\n    function placeBid(\n        uint256 amount\n    )external payable{\n        require(amount >= _currentTopBid + _minBid, \"Bid too small\");\n        require(msg.value >= amount, \"Not enough funds sent\");\n        require(_isLive, \"Auction is closed\");\n        // payable(address(this)).transfer(amount);\n        if(_highestBidder != address(0)){\n            returnCurrentBid();\n        }\n        _highestBidder = msg.sender;\n        _currentTopBid = amount;\n        emit PlacedBid(msg.sender, amount);\n    }\n\n    function closeAuction()external{\n        require(_isAdmin[msg.sender], \"Only an admin can close an auction\");\n        require(_isLive, \"Auction is already closed\");\n        require(_auctionBeneficiary != address(0)   , \"Auction beneficiary can't be 0 address\");\n        if(_currentTopBid >= _reservePrice){\n            Lux(_contractToMint).mint(_highestBidder, _tokenIdToWin, 1);\n            payable(_auctionBeneficiary).transfer(address(this).balance);\n            _isLive = false;\n            emit AuctionEnded(_highestBidder);\n        }else{\n            cancelAuction();\n        }\n    }\n\n    function cancelAuction()public{\n        require(_isAdmin[msg.sender], \"Only an admin can cancel an auction\");\n        require(_isLive, \"You cannot cancel a closed Auction\");\n        returnCurrentBid();\n        _isLive = false;\n        emit AuctionCancelled (_highestBidder, _currentTopBid);\n    }\n\n    function withdrawContractFunds(address recipient) external {\n        require(_isAdmin[msg.sender], \"Only an admin can retrun the funds auction\");\n        payable(recipient).transfer(address(this).balance);\n    }\n\n    function addAdmin(address newAdmin) external{\n        require(_isAdmin[msg.sender], \"Only an admin can add another one\");\n        _isAdmin[newAdmin] = true;\n    }\n\n    function returnCurrentBid()internal{\n        require(_highestBidder != address(0), \"Cannot refund the 0 address\");\n        require(_currentTopBid >= 0, \"Cannot refund a bid of 0\");\n        payable(_highestBidder).transfer(_currentTopBid);\n    }\n\n}",
  "sourcePath": "/Users/bct/Documents/Dev/NFT_dev/DK/contracts/LuxAuction.sol",
  "compiler": {
    "name": "solc",
    "version": "0.8.13+commit.abaa5c0e.Emscripten.clang"
  },
  "schemaVersion": "3.4.4",
  "updatedAt": "2022-08-04T21:54:50.878Z",
  "devdoc": {
    "kind": "dev",
    "methods": {},
    "version": 1
  },
  "userdoc": {
    "kind": "user",
    "methods": {},
    "version": 1
  }
}