{
  "contractName": "LuxMint",
  "abi": [
    {
      "inputs": [],
      "stateMutability": "nonpayable",
      "type": "constructor"
    },
    {
      "inputs": [],
      "name": "_ALMintOpened",
      "outputs": [
        {
          "internalType": "bool",
          "name": "",
          "type": "bool"
        }
      ],
      "stateMutability": "view",
      "type": "function"
    },
    {
      "inputs": [],
      "name": "_ALMintPrice",
      "outputs": [
        {
          "internalType": "uint256",
          "name": "",
          "type": "uint256"
        }
      ],
      "stateMutability": "view",
      "type": "function"
    },
    {
      "inputs": [],
      "name": "_OSAddress",
      "outputs": [
        {
          "internalType": "address",
          "name": "",
          "type": "address"
        }
      ],
      "stateMutability": "view",
      "type": "function"
    },
    {
      "inputs": [],
      "name": "_burnMintOpened",
      "outputs": [
        {
          "internalType": "bool",
          "name": "",
          "type": "bool"
        }
      ],
      "stateMutability": "view",
      "type": "function"
    },
    {
      "inputs": [],
      "name": "_burnRequired",
      "outputs": [
        {
          "internalType": "bool",
          "name": "",
          "type": "bool"
        }
      ],
      "stateMutability": "view",
      "type": "function"
    },
    {
      "inputs": [
        {
          "internalType": "address",
          "name": "",
          "type": "address"
        }
      ],
      "name": "_hasMintedALToken",
      "outputs": [
        {
          "internalType": "bool",
          "name": "",
          "type": "bool"
        }
      ],
      "stateMutability": "view",
      "type": "function"
    },
    {
      "inputs": [
        {
          "internalType": "address",
          "name": "",
          "type": "address"
        }
      ],
      "name": "_hasMintedBurnToken",
      "outputs": [
        {
          "internalType": "bool",
          "name": "",
          "type": "bool"
        }
      ],
      "stateMutability": "view",
      "type": "function"
    },
    {
      "inputs": [
        {
          "internalType": "address",
          "name": "",
          "type": "address"
        }
      ],
      "name": "_isAdmin",
      "outputs": [
        {
          "internalType": "bool",
          "name": "",
          "type": "bool"
        }
      ],
      "stateMutability": "view",
      "type": "function"
    },
    {
      "inputs": [],
      "name": "_luxAddress",
      "outputs": [
        {
          "internalType": "address",
          "name": "",
          "type": "address"
        }
      ],
      "stateMutability": "view",
      "type": "function"
    },
    {
      "inputs": [],
      "name": "_recipient",
      "outputs": [
        {
          "internalType": "address",
          "name": "",
          "type": "address"
        }
      ],
      "stateMutability": "view",
      "type": "function"
    },
    {
      "inputs": [],
      "name": "_signer",
      "outputs": [
        {
          "internalType": "address",
          "name": "",
          "type": "address"
        }
      ],
      "stateMutability": "view",
      "type": "function"
    },
    {
      "inputs": [
        {
          "internalType": "address",
          "name": "signer",
          "type": "address"
        }
      ],
      "name": "setSigner",
      "outputs": [],
      "stateMutability": "nonpayable",
      "type": "function"
    },
    {
      "inputs": [
        {
          "internalType": "address",
          "name": "luxAddress",
          "type": "address"
        }
      ],
      "name": "setLuxAddress",
      "outputs": [],
      "stateMutability": "nonpayable",
      "type": "function"
    },
    {
      "inputs": [
        {
          "internalType": "address",
          "name": "OSAddress",
          "type": "address"
        }
      ],
      "name": "setOSAddress",
      "outputs": [],
      "stateMutability": "nonpayable",
      "type": "function"
    },
    {
      "inputs": [
        {
          "internalType": "address",
          "name": "recipient",
          "type": "address"
        }
      ],
      "name": "setRecipient",
      "outputs": [],
      "stateMutability": "nonpayable",
      "type": "function"
    },
    {
      "inputs": [],
      "name": "toggleALMintOpened",
      "outputs": [],
      "stateMutability": "nonpayable",
      "type": "function"
    },
    {
      "inputs": [],
      "name": "toggleBurnMintOpened",
      "outputs": [],
      "stateMutability": "nonpayable",
      "type": "function"
    },
    {
      "inputs": [],
      "name": "toggleBurnRequired",
      "outputs": [],
      "stateMutability": "nonpayable",
      "type": "function"
    },
    {
      "inputs": [
        {
          "internalType": "uint8",
          "name": "v",
          "type": "uint8"
        },
        {
          "internalType": "bytes32",
          "name": "r",
          "type": "bytes32"
        },
        {
          "internalType": "bytes32",
          "name": "s",
          "type": "bytes32"
        }
      ],
      "name": "ALMint",
      "outputs": [],
      "stateMutability": "payable",
      "type": "function"
    },
    {
      "inputs": [
        {
          "internalType": "uint256",
          "name": "tokenToBurn",
          "type": "uint256"
        }
      ],
      "name": "burnMint",
      "outputs": [],
      "stateMutability": "payable",
      "type": "function"
    }
  ],
  "bytecode": "0x608060405267016345785d8a000060005573495f947276749ce646f68ac8c248420045cb7b5e600260006101000a81548173ffffffffffffffffffffffffffffffffffffffff021916908373ffffffffffffffffffffffffffffffffffffffff1602179055506001600460166101000a81548160ff02191690831515021790555034801561008c57600080fd5b506001600560003373ffffffffffffffffffffffffffffffffffffffff1673ffffffffffffffffffffffffffffffffffffffff16815260200190815260200160002060006101000a81548160ff021916908315150217905550611b0d806100f46000396000f3fe60806040526004361061011f5760003560e01c806386d082cf116100a0578063ca29e8c811610064578063ca29e8c81461036b578063d4cca5f114610396578063d9a72d05146103c1578063e9e43f1f146103ec578063ef3ef4e5146104295761011f565b806386d082cf146102bb5780638a85bd6d146102e65780639724c6e8146102fd578063a3dda69c14610326578063bf9bb8fa1461034f5761011f565b80633125ac6c116100e75780633125ac6c146101f757806339d1c1c3146102135780633bbed4a01461023e57806362b07c83146102675780636c19e783146102925761011f565b806305ec8c99146101245780630a20fea71461016157806311b93bf91461017857806326b3990a146101a3578063282d5f4e146101e0575b600080fd5b34801561013057600080fd5b5061014b600480360381019061014691906110a9565b610454565b60405161015891906110f1565b60405180910390f35b34801561016d57600080fd5b50610176610474565b005b34801561018457600080fd5b5061018d61052c565b60405161019a919061111b565b60405180910390f35b3480156101af57600080fd5b506101ca60048036038101906101c591906110a9565b610552565b6040516101d791906110f1565b60405180910390f35b3480156101ec57600080fd5b506101f5610572565b005b610211600480360381019061020c919061116c565b61062a565b005b34801561021f57600080fd5b506102286108a6565b604051610235919061111b565b60405180910390f35b34801561024a57600080fd5b50610265600480360381019061026091906110a9565b6108cc565b005b34801561027357600080fd5b5061027c61099c565b60405161028991906111a8565b60405180910390f35b34801561029e57600080fd5b506102b960048036038101906102b491906110a9565b6109a2565b005b3480156102c757600080fd5b506102d06109e6565b6040516102dd91906110f1565b60405180910390f35b3480156102f257600080fd5b506102fb6109f9565b005b34801561030957600080fd5b50610324600480360381019061031f91906110a9565b610ab1565b005b34801561033257600080fd5b5061034d600480360381019061034891906110a9565b610b81565b005b61036960048036038101906103649190611232565b610c51565b005b34801561037757600080fd5b50610380610e3b565b60405161038d919061111b565b60405180910390f35b3480156103a257600080fd5b506103ab610e61565b6040516103b8919061111b565b60405180910390f35b3480156103cd57600080fd5b506103d6610e87565b6040516103e391906110f1565b60405180910390f35b3480156103f857600080fd5b50610413600480360381019061040e91906110a9565b610e9a565b60405161042091906110f1565b60405180910390f35b34801561043557600080fd5b5061043e610eba565b60405161044b91906110f1565b60405180910390f35b60076020528060005260406000206000915054906101000a900460ff1681565b600560003373ffffffffffffffffffffffffffffffffffffffff1673ffffffffffffffffffffffffffffffffffffffff16815260200190815260200160002060009054906101000a900460ff16610500576040517f08c379a00000000000000000000000000000000000000000000000000000000081526004016104f7906112e2565b60405180910390fd5b600460149054906101000a900460ff1615600460146101000a81548160ff021916908315150217905550565b600260009054906101000a900473ffffffffffffffffffffffffffffffffffffffff1681565b60066020528060005260406000206000915054906101000a900460ff1681565b600560003373ffffffffffffffffffffffffffffffffffffffff1673ffffffffffffffffffffffffffffffffffffffff16815260200190815260200160002060009054906101000a900460ff166105fe576040517f08c379a00000000000000000000000000000000000000000000000000000000081526004016105f59061134e565b60405180910390fd5b600460159054906101000a900460ff1615600460156101000a81548160ff021916908315150217905550565b600460159054906101000a900460ff16610679576040517f08c379a0000000000000000000000000000000000000000000000000000000008152600401610670906113ba565b60405180910390fd5b60001515600760003373ffffffffffffffffffffffffffffffffffffffff1673ffffffffffffffffffffffffffffffffffffffff16815260200190815260200160002060009054906101000a900460ff1615151461070c576040517f08c379a000000000000000000000000000000000000000000000000000000000815260040161070390611426565b60405180910390fd5b600460169054906101000a900460ff16156107b857600260009054906101000a900473ffffffffffffffffffffffffffffffffffffffff1673ffffffffffffffffffffffffffffffffffffffff1663f242432a3361dead8460016040518563ffffffff1660e01b815260040161078594939291906114e8565b600060405180830381600087803b15801561079f57600080fd5b505af11580156107b3573d6000803e3d6000fd5b505050505b600160009054906101000a900473ffffffffffffffffffffffffffffffffffffffff1673ffffffffffffffffffffffffffffffffffffffff1663156e29f633600360016040518463ffffffff1660e01b81526004016108199392919061157b565b600060405180830381600087803b15801561083357600080fd5b505af1158015610847573d6000803e3d6000fd5b505050506001600760003373ffffffffffffffffffffffffffffffffffffffff1673ffffffffffffffffffffffffffffffffffffffff16815260200190815260200160002060006101000a81548160ff02191690831515021790555050565b600160009054906101000a900473ffffffffffffffffffffffffffffffffffffffff1681565b600560003373ffffffffffffffffffffffffffffffffffffffff1673ffffffffffffffffffffffffffffffffffffffff16815260200190815260200160002060009054906101000a900460ff16610958576040517f08c379a000000000000000000000000000000000000000000000000000000000815260040161094f90611624565b60405180910390fd5b80600460006101000a81548173ffffffffffffffffffffffffffffffffffffffff021916908373ffffffffffffffffffffffffffffffffffffffff16021790555050565b60005481565b80600360006101000a81548173ffffffffffffffffffffffffffffffffffffffff021916908373ffffffffffffffffffffffffffffffffffffffff16021790555050565b600460169054906101000a900460ff1681565b600560003373ffffffffffffffffffffffffffffffffffffffff1673ffffffffffffffffffffffffffffffffffffffff16815260200190815260200160002060009054906101000a900460ff16610a85576040517f08c379a0000000000000000000000000000000000000000000000000000000008152600401610a7c906116b6565b60405180910390fd5b600460169054906101000a900460ff1615600460166101000a81548160ff021916908315150217905550565b600560003373ffffffffffffffffffffffffffffffffffffffff1673ffffffffffffffffffffffffffffffffffffffff16815260200190815260200160002060009054906101000a900460ff16610b3d576040517f08c379a0000000000000000000000000000000000000000000000000000000008152600401610b3490611722565b60405180910390fd5b80600260006101000a81548173ffffffffffffffffffffffffffffffffffffffff021916908373ffffffffffffffffffffffffffffffffffffffff16021790555050565b600560003373ffffffffffffffffffffffffffffffffffffffff1673ffffffffffffffffffffffffffffffffffffffff16815260200190815260200160002060009054906101000a900460ff16610c0d576040517f08c379a0000000000000000000000000000000000000000000000000000000008152600401610c049061178e565b60405180910390fd5b80600160006101000a81548173ffffffffffffffffffffffffffffffffffffffff021916908373ffffffffffffffffffffffffffffffffffffffff16021790555050565b610c5c838383610ecd565b610c9b576040517f08c379a0000000000000000000000000000000000000000000000000000000008152600401610c92906117fa565b60405180910390fd5b600054341015610ce0576040517f08c379a0000000000000000000000000000000000000000000000000000000008152600401610cd790611866565b60405180910390fd5b600460009054906101000a900473ffffffffffffffffffffffffffffffffffffffff1673ffffffffffffffffffffffffffffffffffffffff166108fc6000549081150290604051600060405180830381858888f19350505050158015610d4a573d6000803e3d6000fd5b50600160009054906101000a900473ffffffffffffffffffffffffffffffffffffffff1673ffffffffffffffffffffffffffffffffffffffff1663156e29f633600260016040518463ffffffff1660e01b8152600401610dac939291906118c1565b600060405180830381600087803b158015610dc657600080fd5b505af1158015610dda573d6000803e3d6000fd5b505050506001600660003373ffffffffffffffffffffffffffffffffffffffff1673ffffffffffffffffffffffffffffffffffffffff16815260200190815260200160002060006101000a81548160ff021916908315150217905550505050565b600360009054906101000a900473ffffffffffffffffffffffffffffffffffffffff1681565b600460009054906101000a900473ffffffffffffffffffffffffffffffffffffffff1681565b600460159054906101000a900460ff1681565b60056020528060005260406000206000915054906101000a900460ff1681565b600460149054906101000a900460ff1681565b6000600133600160009054906101000a900473ffffffffffffffffffffffffffffffffffffffff16600460149054906101000a900460ff16600660003373ffffffffffffffffffffffffffffffffffffffff1673ffffffffffffffffffffffffffffffffffffffff16815260200190815260200160002060009054906101000a900460ff16604051602001610f659493929190611988565b60405160208183030381529060405280519060200120604051602001610f8b9190611a4e565b6040516020818303038152906040528051906020012085858560405160008152602001604052604051610fc19493929190611a92565b6020604051602081039080840390855afa158015610fe3573d6000803e3d6000fd5b5050506020604051035173ffffffffffffffffffffffffffffffffffffffff16600360009054906101000a900473ffffffffffffffffffffffffffffffffffffffff1673ffffffffffffffffffffffffffffffffffffffff161490509392505050565b600080fd5b600073ffffffffffffffffffffffffffffffffffffffff82169050919050565b60006110768261104b565b9050919050565b6110868161106b565b811461109157600080fd5b50565b6000813590506110a38161107d565b92915050565b6000602082840312156110bf576110be611046565b5b60006110cd84828501611094565b91505092915050565b60008115159050919050565b6110eb816110d6565b82525050565b600060208201905061110660008301846110e2565b92915050565b6111158161106b565b82525050565b6000602082019050611130600083018461110c565b92915050565b6000819050919050565b61114981611136565b811461115457600080fd5b50565b60008135905061116681611140565b92915050565b60006020828403121561118257611181611046565b5b600061119084828501611157565b91505092915050565b6111a281611136565b82525050565b60006020820190506111bd6000830184611199565b92915050565b600060ff82169050919050565b6111d9816111c3565b81146111e457600080fd5b50565b6000813590506111f6816111d0565b92915050565b6000819050919050565b61120f816111fc565b811461121a57600080fd5b50565b60008135905061122c81611206565b92915050565b60008060006060848603121561124b5761124a611046565b5b6000611259868287016111e7565b935050602061126a8682870161121d565b925050604061127b8682870161121d565b9150509250925092565b600082825260208201905092915050565b7f4f6e6c792041646d696e732063616e20746f67676c6520414c204d696e740000600082015250565b60006112cc601e83611285565b91506112d782611296565b602082019050919050565b600060208201905081810360008301526112fb816112bf565b9050919050565b7f4f6e6c792041646d696e732063616e20746f67676c65206275726e204d696e74600082015250565b6000611338602083611285565b915061134382611302565b602082019050919050565b600060208201905081810360008301526113678161132b565b9050919050565b7f4d696e7420636c6f736564000000000000000000000000000000000000000000600082015250565b60006113a4600b83611285565b91506113af8261136e565b602082019050919050565b600060208201905081810360008301526113d381611397565b9050919050565b7f43616e206f6e6c79206d696e74206f6e6520746f6b656e000000000000000000600082015250565b6000611410601783611285565b915061141b826113da565b602082019050919050565b6000602082019050818103600083015261143f81611403565b9050919050565b6000819050919050565b6000819050919050565b600061147561147061146b84611446565b611450565b611136565b9050919050565b6114858161145a565b82525050565b600082825260208201905092915050565b7f3078300000000000000000000000000000000000000000000000000000000000600082015250565b60006114d260038361148b565b91506114dd8261149c565b602082019050919050565b600060a0820190506114fd600083018761110c565b61150a602083018661110c565b6115176040830185611199565b611524606083018461147c565b8181036080830152611535816114c5565b905095945050505050565b6000819050919050565b600061156561156061155b84611540565b611450565b611136565b9050919050565b6115758161154a565b82525050565b6000606082019050611590600083018661110c565b61159d602083018561156c565b6115aa604083018461147c565b949350505050565b7f4f6e6c792041646d696e732063616e207365742074686520726563697069656e60008201527f7400000000000000000000000000000000000000000000000000000000000000602082015250565b600061160e602183611285565b9150611619826115b2565b604082019050919050565b6000602082019050818103600083015261163d81611601565b9050919050565b7f4f6e6c792041646d696e732063616e20746f67676c65205f6275726e5265717560008201527f6972656400000000000000000000000000000000000000000000000000000000602082015250565b60006116a0602483611285565b91506116ab82611644565b604082019050919050565b600060208201905081810360008301526116cf81611693565b9050919050565b7f4f6e6c792041646d696e732063616e20736574204f5341646472657373000000600082015250565b600061170c601d83611285565b9150611717826116d6565b602082019050919050565b6000602082019050818103600083015261173b816116ff565b9050919050565b7f4f6e6c792041646d696e732063616e20736574204c7578416464726573730000600082015250565b6000611778601e83611285565b915061178382611742565b602082019050919050565b600060208201905081810360008301526117a78161176b565b9050919050565b7f4d696e74206e6f7420616c6c6f77656400000000000000000000000000000000600082015250565b60006117e4601083611285565b91506117ef826117ae565b602082019050919050565b60006020820190508181036000830152611813816117d7565b9050919050565b7f4e6f7420656e6f7567682066756e647300000000000000000000000000000000600082015250565b6000611850601083611285565b915061185b8261181a565b602082019050919050565b6000602082019050818103600083015261187f81611843565b9050919050565b6000819050919050565b60006118ab6118a66118a184611886565b611450565b611136565b9050919050565b6118bb81611890565b82525050565b60006060820190506118d6600083018661110c565b6118e360208301856118b2565b6118f0604083018461147c565b949350505050565b60008160601b9050919050565b6000611910826118f8565b9050919050565b600061192282611905565b9050919050565b61193a6119358261106b565b611917565b82525050565b60008160f81b9050919050565b600061195882611940565b9050919050565b600061196a8261194d565b9050919050565b61198261197d826110d6565b61195f565b82525050565b60006119948287611929565b6014820191506119a48286611929565b6014820191506119b48285611971565b6001820191506119c48284611971565b60018201915081905095945050505050565b600081905092915050565b7f19457468657265756d205369676e6564204d6573736167653a0a333200000000600082015250565b6000611a17601c836119d6565b9150611a22826119e1565b601c82019050919050565b6000819050919050565b611a48611a43826111fc565b611a2d565b82525050565b6000611a5982611a0a565b9150611a658284611a37565b60208201915081905092915050565b611a7d816111fc565b82525050565b611a8c816111c3565b82525050565b6000608082019050611aa76000830187611a74565b611ab46020830186611a83565b611ac16040830185611a74565b611ace6060830184611a74565b9594505050505056fea26469706673582212200c006120c44c2997dfd02a838647c14931125af843d4c1f914732f746e46c6bc64736f6c634300080d0033",
  "immutableReferences": {},
  "source": "// SPDX-License-Identifier: MIT\n\npragma solidity >= 0.8.13;\n\nimport \"@openzeppelin/contracts/token/ERC1155/IERC1155.sol\";\nimport \"./Lux.sol\";\n\n/// @title Lux mint is one of 2 minting contracts for the Lux dro by DK\n// It will handle the minting process for the multi editions\n/// @author @smartcontrart\n/// @notice The contract is to be used for the sole purpose of minting Lux multi edition tokens\n// It has 2 main minting functionalities.\n// 1 An offchain allow-list system\n// 2 A mint process requiering a burn\n\ncontract LuxMint{\n    uint256 public _ALMintPrice = 0.1*10**18;\n\n    address public _luxAddress;\n    address public _OSAddress = 0x495f947276749Ce646f68AC8c248420045cb7b5e;\n    address public _signer;\n    address public _recipient;\n\n    bool public _ALMintOpened;\n    bool public _burnMintOpened;\n    bool public _burnRequired = true;\n\n    mapping(address => bool) public _isAdmin;\n    mapping(address => bool) public _hasMintedALToken;\n    mapping(address => bool) public _hasMintedBurnToken;\n\n    constructor(){\n        _isAdmin[msg.sender]=true;\n    }\n    \n    function setSigner (address signer) external{\n        _signer = signer;\n    }\n\n    function setLuxAddress(address luxAddress) external{\n        require(_isAdmin[msg.sender], \"Only Admins can set LuxAddress\");\n        _luxAddress = luxAddress;\n    }\n\n    function setOSAddress(address OSAddress) external{\n        require(_isAdmin[msg.sender], \"Only Admins can set OSAddress\");\n        _OSAddress = OSAddress;\n    }\n\n    function setRecipient(address recipient) external{\n        require(_isAdmin[msg.sender], \"Only Admins can set the recipient\");\n        _recipient = recipient;\n    }\n\n    function toggleALMintOpened() external{\n        require(_isAdmin[msg.sender], \"Only Admins can toggle AL Mint\");\n        _ALMintOpened = !_ALMintOpened;\n    }\n\n    function toggleBurnMintOpened() external{\n        require(_isAdmin[msg.sender], \"Only Admins can toggle burn Mint\");\n        _burnMintOpened = !_burnMintOpened;\n    }\n\n    function toggleBurnRequired() external{\n        require(_isAdmin[msg.sender], \"Only Admins can toggle _burnRequired\");\n        _burnRequired = !_burnRequired;\n    }\n\n    function mintAllowed(uint8 v, bytes32 r, bytes32 s)internal view returns(bool){\n        return(\n            _signer ==\n                ecrecover(\n                    keccak256(\n                        abi.encodePacked(\n                            \"\\x19Ethereum Signed Message:\\n32\",\n                            keccak256(\n                                abi.encodePacked(\n                                    msg.sender,\n                                    _luxAddress,\n                                    _ALMintOpened,\n                                    _hasMintedALToken[msg.sender] // Should be false\n                                )\n                            )\n                        )\n                    )\n                , v, r, s)\n        );\n    }\n\n\n    function ALMint(\n        uint8 v,\n        bytes32 r, \n        bytes32 s\n    ) external payable{\n        require(mintAllowed(v, r, s), \"Mint not allowed\");\n        require(msg.value >= _ALMintPrice, \"Not enough funds\");\n        payable(_recipient).transfer(_ALMintPrice);\n        Lux(_luxAddress).mint(msg.sender, 2, 1);\n        _hasMintedALToken[msg.sender] = true;\n    }\n\n    function burnMint(\n        uint256 tokenToBurn\n    ) external payable{\n        // Tokens eligible for burn:\n        // BROKEN //\n        // 0x495f947276749Ce646f68AC8c248420045cb7b5e\n        // 20120243526926311683519745435316742329827468478987451852585008394345891495947\n\n        // SURRENDER //\n        // 0x495f947276749Ce646f68AC8c248420045cb7b5e\n        // 20120243526926311683519745435316742329827468478987451852585008395445403123749\n\n        // CERTITUDE\n        // 0x495f947276749ce646f68ac8c248420045cb7b5e\n        // 20120243526926311683519745435316742329827468478987451852585008393246379868164\n\n        // ETERNAL \n        // 0x495f947276749ce646f68ac8c248420045cb7b5e\n        // 20120243526926311683519745435316742329827468478987451852585008397644426379284\n\n        // DEVOTED\n        // 0x495f947276749ce646f68ac8c248420045cb7b5e\n        // 20120243526926311683519745435316742329827468478987451852585008396544914751506\n        require(_burnMintOpened, \"Mint closed\");\n        require(_hasMintedBurnToken[msg.sender] == false, \"Can only mint one token\");\n        // require(msg.value >= _burnMintPrice, \"Not enough funds\");\n        if(_burnRequired){\n            IERC1155(_OSAddress).safeTransferFrom(\n                msg.sender, \n                0x000000000000000000000000000000000000dEaD, \n                tokenToBurn, \n                1, \n                \"0x0\");\n        }\n         Lux(_luxAddress).mint(msg.sender, 3, 1);\n         _hasMintedBurnToken[msg.sender] = true;\n    }\n}",
  "sourcePath": "/Users/bct/Documents/Dev/NFT_dev/DK/contracts/LuxMint.sol",
  "compiler": {
    "name": "solc",
    "version": "0.8.13+commit.abaa5c0e.Emscripten.clang"
  },
  "schemaVersion": "3.4.4",
  "updatedAt": "2022-08-04T21:54:50.917Z",
  "devdoc": {
    "author": "@smartcontrart",
    "kind": "dev",
    "methods": {},
    "version": 1
  },
  "userdoc": {
    "kind": "user",
    "methods": {},
    "notice": "The contract is to be used for the sole purpose of minting Lux multi edition tokens",
    "version": 1
  }
}