{
  "contractName": "OSContract",
  "abi": [
    {
      "inputs": [],
      "stateMutability": "nonpayable",
      "type": "constructor"
    },
    {
      "anonymous": false,
      "inputs": [
        {
          "indexed": true,
          "internalType": "address",
          "name": "account",
          "type": "address"
        },
        {
          "indexed": true,
          "internalType": "address",
          "name": "sender",
          "type": "address"
        }
      ],
      "name": "AdminApproved",
      "type": "event"
    },
    {
      "anonymous": false,
      "inputs": [
        {
          "indexed": true,
          "internalType": "address",
          "name": "account",
          "type": "address"
        },
        {
          "indexed": true,
          "internalType": "address",
          "name": "sender",
          "type": "address"
        }
      ],
      "name": "AdminRevoked",
      "type": "event"
    },
    {
      "anonymous": false,
      "inputs": [
        {
          "indexed": true,
          "internalType": "address",
          "name": "account",
          "type": "address"
        },
        {
          "indexed": true,
          "internalType": "address",
          "name": "operator",
          "type": "address"
        },
        {
          "indexed": false,
          "internalType": "bool",
          "name": "approved",
          "type": "bool"
        }
      ],
      "name": "ApprovalForAll",
      "type": "event"
    },
    {
      "anonymous": false,
      "inputs": [
        {
          "indexed": true,
          "internalType": "address",
          "name": "previousOwner",
          "type": "address"
        },
        {
          "indexed": true,
          "internalType": "address",
          "name": "newOwner",
          "type": "address"
        }
      ],
      "name": "OwnershipTransferred",
      "type": "event"
    },
    {
      "anonymous": false,
      "inputs": [
        {
          "indexed": true,
          "internalType": "address",
          "name": "operator",
          "type": "address"
        },
        {
          "indexed": true,
          "internalType": "address",
          "name": "from",
          "type": "address"
        },
        {
          "indexed": true,
          "internalType": "address",
          "name": "to",
          "type": "address"
        },
        {
          "indexed": false,
          "internalType": "uint256[]",
          "name": "ids",
          "type": "uint256[]"
        },
        {
          "indexed": false,
          "internalType": "uint256[]",
          "name": "values",
          "type": "uint256[]"
        }
      ],
      "name": "TransferBatch",
      "type": "event"
    },
    {
      "anonymous": false,
      "inputs": [
        {
          "indexed": true,
          "internalType": "address",
          "name": "operator",
          "type": "address"
        },
        {
          "indexed": true,
          "internalType": "address",
          "name": "from",
          "type": "address"
        },
        {
          "indexed": true,
          "internalType": "address",
          "name": "to",
          "type": "address"
        },
        {
          "indexed": false,
          "internalType": "uint256",
          "name": "id",
          "type": "uint256"
        },
        {
          "indexed": false,
          "internalType": "uint256",
          "name": "value",
          "type": "uint256"
        }
      ],
      "name": "TransferSingle",
      "type": "event"
    },
    {
      "anonymous": false,
      "inputs": [
        {
          "indexed": false,
          "internalType": "string",
          "name": "value",
          "type": "string"
        },
        {
          "indexed": true,
          "internalType": "uint256",
          "name": "id",
          "type": "uint256"
        }
      ],
      "name": "URI",
      "type": "event"
    },
    {
      "inputs": [
        {
          "internalType": "address",
          "name": "admin",
          "type": "address"
        }
      ],
      "name": "approveAdmin",
      "outputs": [],
      "stateMutability": "nonpayable",
      "type": "function"
    },
    {
      "inputs": [
        {
          "internalType": "address",
          "name": "account",
          "type": "address"
        },
        {
          "internalType": "uint256",
          "name": "id",
          "type": "uint256"
        }
      ],
      "name": "balanceOf",
      "outputs": [
        {
          "internalType": "uint256",
          "name": "",
          "type": "uint256"
        }
      ],
      "stateMutability": "view",
      "type": "function"
    },
    {
      "inputs": [
        {
          "internalType": "address[]",
          "name": "accounts",
          "type": "address[]"
        },
        {
          "internalType": "uint256[]",
          "name": "ids",
          "type": "uint256[]"
        }
      ],
      "name": "balanceOfBatch",
      "outputs": [
        {
          "internalType": "uint256[]",
          "name": "",
          "type": "uint256[]"
        }
      ],
      "stateMutability": "view",
      "type": "function"
    },
    {
      "inputs": [],
      "name": "getAdmins",
      "outputs": [
        {
          "internalType": "address[]",
          "name": "admins",
          "type": "address[]"
        }
      ],
      "stateMutability": "view",
      "type": "function"
    },
    {
      "inputs": [
        {
          "internalType": "address",
          "name": "admin",
          "type": "address"
        }
      ],
      "name": "isAdmin",
      "outputs": [
        {
          "internalType": "bool",
          "name": "",
          "type": "bool"
        }
      ],
      "stateMutability": "view",
      "type": "function"
    },
    {
      "inputs": [
        {
          "internalType": "address",
          "name": "account",
          "type": "address"
        },
        {
          "internalType": "address",
          "name": "operator",
          "type": "address"
        }
      ],
      "name": "isApprovedForAll",
      "outputs": [
        {
          "internalType": "bool",
          "name": "",
          "type": "bool"
        }
      ],
      "stateMutability": "view",
      "type": "function"
    },
    {
      "inputs": [],
      "name": "owner",
      "outputs": [
        {
          "internalType": "address",
          "name": "",
          "type": "address"
        }
      ],
      "stateMutability": "view",
      "type": "function"
    },
    {
      "inputs": [],
      "name": "renounceOwnership",
      "outputs": [],
      "stateMutability": "nonpayable",
      "type": "function"
    },
    {
      "inputs": [
        {
          "internalType": "address",
          "name": "admin",
          "type": "address"
        }
      ],
      "name": "revokeAdmin",
      "outputs": [],
      "stateMutability": "nonpayable",
      "type": "function"
    },
    {
      "inputs": [
        {
          "internalType": "address",
          "name": "from",
          "type": "address"
        },
        {
          "internalType": "address",
          "name": "to",
          "type": "address"
        },
        {
          "internalType": "uint256[]",
          "name": "ids",
          "type": "uint256[]"
        },
        {
          "internalType": "uint256[]",
          "name": "amounts",
          "type": "uint256[]"
        },
        {
          "internalType": "bytes",
          "name": "data",
          "type": "bytes"
        }
      ],
      "name": "safeBatchTransferFrom",
      "outputs": [],
      "stateMutability": "nonpayable",
      "type": "function"
    },
    {
      "inputs": [
        {
          "internalType": "address",
          "name": "from",
          "type": "address"
        },
        {
          "internalType": "address",
          "name": "to",
          "type": "address"
        },
        {
          "internalType": "uint256",
          "name": "id",
          "type": "uint256"
        },
        {
          "internalType": "uint256",
          "name": "amount",
          "type": "uint256"
        },
        {
          "internalType": "bytes",
          "name": "data",
          "type": "bytes"
        }
      ],
      "name": "safeTransferFrom",
      "outputs": [],
      "stateMutability": "nonpayable",
      "type": "function"
    },
    {
      "inputs": [
        {
          "internalType": "address",
          "name": "operator",
          "type": "address"
        },
        {
          "internalType": "bool",
          "name": "approved",
          "type": "bool"
        }
      ],
      "name": "setApprovalForAll",
      "outputs": [],
      "stateMutability": "nonpayable",
      "type": "function"
    },
    {
      "inputs": [
        {
          "internalType": "address",
          "name": "newOwner",
          "type": "address"
        }
      ],
      "name": "transferOwnership",
      "outputs": [],
      "stateMutability": "nonpayable",
      "type": "function"
    },
    {
      "inputs": [
        {
          "internalType": "bytes4",
          "name": "interfaceId",
          "type": "bytes4"
        }
      ],
      "name": "supportsInterface",
      "outputs": [
        {
          "internalType": "bool",
          "name": "",
          "type": "bool"
        }
      ],
      "stateMutability": "view",
      "type": "function"
    },
    {
      "inputs": [],
      "name": "name",
      "outputs": [
        {
          "internalType": "string",
          "name": "",
          "type": "string"
        }
      ],
      "stateMutability": "view",
      "type": "function"
    },
    {
      "inputs": [
        {
          "internalType": "address",
          "name": "to",
          "type": "address"
        },
        {
          "internalType": "uint256",
          "name": "id",
          "type": "uint256"
        },
        {
          "internalType": "uint256",
          "name": "amount",
          "type": "uint256"
        }
      ],
      "name": "mint",
      "outputs": [],
      "stateMutability": "nonpayable",
      "type": "function"
    },
    {
      "inputs": [
        {
          "internalType": "address",
          "name": "to",
          "type": "address"
        },
        {
          "internalType": "uint256[]",
          "name": "ids",
          "type": "uint256[]"
        },
        {
          "internalType": "uint256[]",
          "name": "amounts",
          "type": "uint256[]"
        }
      ],
      "name": "mintBatch",
      "outputs": [],
      "stateMutability": "nonpayable",
      "type": "function"
    },
    {
      "inputs": [
        {
          "internalType": "string",
          "name": "updatedURI",
          "type": "string"
        }
      ],
      "name": "setURI",
      "outputs": [],
      "stateMutability": "nonpayable",
      "type": "function"
    },
    {
      "inputs": [
        {
          "internalType": "uint256",
          "name": "tokenId",
          "type": "uint256"
        }
      ],
      "name": "uri",
      "outputs": [
        {
          "internalType": "string",
          "name": "",
          "type": "string"
        }
      ],
      "stateMutability": "view",
      "type": "function"
    },
    {
      "inputs": [
        {
          "internalType": "uint256",
          "name": "tokenId",
          "type": "uint256"
        },
        {
          "internalType": "uint256",
          "name": "quantity",
          "type": "uint256"
        }
      ],
      "name": "burn",
      "outputs": [],
      "stateMutability": "nonpayable",
      "type": "function"
    },
    {
      "inputs": [
        {
          "internalType": "uint256[]",
          "name": "ids",
          "type": "uint256[]"
        },
        {
          "internalType": "uint256[]",
          "name": "amounts",
          "type": "uint256[]"
        }
      ],
      "name": "burnBatch",
      "outputs": [],
      "stateMutability": "nonpayable",
      "type": "function"
    },
    {
      "inputs": [
        {
          "internalType": "address payable",
          "name": "_recipient",
          "type": "address"
        },
        {
          "internalType": "uint256",
          "name": "_royaltyPerCent",
          "type": "uint256"
        }
      ],
      "name": "setRoyalties",
      "outputs": [],
      "stateMutability": "nonpayable",
      "type": "function"
    },
    {
      "inputs": [
        {
          "internalType": "uint256",
          "name": "salePrice",
          "type": "uint256"
        }
      ],
      "name": "royaltyInfo",
      "outputs": [
        {
          "internalType": "address",
          "name": "",
          "type": "address"
        },
        {
          "internalType": "uint256",
          "name": "",
          "type": "uint256"
        }
      ],
      "stateMutability": "view",
      "type": "function"
    },
    {
      "inputs": [
        {
          "internalType": "address",
          "name": "recipient",
          "type": "address"
        }
      ],
      "name": "withdraw",
      "outputs": [],
      "stateMutability": "nonpayable",
      "type": "function"
    }
  ],
  "bytecode": "0x60806040523480156200001157600080fd5b50604051806020016040528060008152506200004262000036620000a360201b60201c565b620000ab60201b60201c565b62000053816200016f60201b60201c565b5033600760006101000a81548173ffffffffffffffffffffffffffffffffffffffff021916908373ffffffffffffffffffffffffffffffffffffffff160217905550600a6006819055506200029f565b600033905090565b60008060009054906101000a900473ffffffffffffffffffffffffffffffffffffffff169050816000806101000a81548173ffffffffffffffffffffffffffffffffffffffff021916908373ffffffffffffffffffffffffffffffffffffffff1602179055508173ffffffffffffffffffffffffffffffffffffffff168173ffffffffffffffffffffffffffffffffffffffff167f8be0079c531659141344cd1fd0a4f28419497f9722a3daafe3b4186f6b6457e060405160405180910390a35050565b8060039080519060200190620001879291906200018b565b5050565b82805462000199906200026a565b90600052602060002090601f016020900481019282620001bd576000855562000209565b82601f10620001d857805160ff191683800117855562000209565b8280016001018555821562000209579182015b8281111562000208578251825591602001919060010190620001eb565b5b5090506200021891906200021c565b5090565b5b80821115620002375760008160009055506001016200021d565b5090565b7f4e487b7100000000000000000000000000000000000000000000000000000000600052602260045260246000fd5b600060028204905060018216806200028357607f821691505b6020821081036200029957620002986200023b565b5b50919050565b614b0c80620002af6000396000f3fe608060405234801561001057600080fd5b50600436106101575760003560e01c80636d73e669116100c3578063b390c0ab1161007c578063b390c0ab146103ac578063cef6d368146103c8578063d81d0a15146103f9578063e985e9c514610415578063f242432a14610445578063f2fde38b1461046157610157565b80636d73e66914610314578063715018a61461033057806383ca4b6f1461033a5780638c7ea24b146103565780638da5cb5b14610372578063a22cb4651461039057610157565b806324d7806c1161011557806324d7806c146102425780632d345670146102725780632eb2c2d61461028e57806331ae450b146102aa5780634e1273f4146102c857806351cff8d9146102f857610157565b8062fdd58e1461015c57806301ffc9a71461018c57806302fe5305146101bc57806306fdde03146101d85780630e89341c146101f6578063156e29f614610226575b600080fd5b61017660048036038101906101719190612f1c565b61047d565b6040516101839190612f6b565b60405180910390f35b6101a660048036038101906101a19190612fde565b610546565b6040516101b39190613026565b60405180910390f35b6101d660048036038101906101d191906130a6565b6105e0565b005b6101e0610686565b6040516101ed919061318c565b60405180910390f35b610210600480360381019061020b91906131ae565b610718565b60405161021d919061318c565b60405180910390f35b610240600480360381019061023b91906131db565b61074c565b005b61025c6004803603810190610257919061322e565b610822565b6040516102699190613026565b60405180910390f35b61028c6004803603810190610287919061322e565b61087c565b005b6102a860048036038101906102a3919061344e565b610984565b005b6102b2610a25565b6040516102bf91906135db565b60405180910390f35b6102e260048036038101906102dd91906136c0565b610b07565b6040516102ef91906137f6565b60405180910390f35b610312600480360381019061030d919061322e565b610c20565b005b61032e6004803603810190610329919061322e565b610cfa565b005b610338610e01565b005b610354600480360381019061034f9190613818565b610e89565b005b610370600480360381019061036b91906138ce565b610e98565b005b61037a610f74565b604051610387919061391d565b60405180910390f35b6103aa60048036038101906103a59190613964565b610f9d565b005b6103c660048036038101906103c191906139a4565b610fb3565b005b6103e260048036038101906103dd91906131ae565b610fc2565b6040516103f09291906139e4565b60405180910390f35b610413600480360381019061040e9190613a0d565b61106e565b005b61042f600480360381019061042a9190613a98565b611144565b60405161043c9190613026565b60405180910390f35b61045f600480360381019061045a9190613ad8565b6111d8565b005b61047b6004803603810190610476919061322e565b611279565b005b60008073ffffffffffffffffffffffffffffffffffffffff168373ffffffffffffffffffffffffffffffffffffffff16036104ed576040517f08c379a00000000000000000000000000000000000000000000000000000000081526004016104e490613be1565b60405180910390fd5b6001600083815260200190815260200160002060008473ffffffffffffffffffffffffffffffffffffffff1673ffffffffffffffffffffffffffffffffffffffff16815260200190815260200160002054905092915050565b600061055182611370565b806105615750610560826113ea565b5b806105c957507f2a55205a000000000000000000000000000000000000000000000000000000007bffffffffffffffffffffffffffffffffffffffffffffffffffffffff1916827bffffffffffffffffffffffffffffffffffffffffffffffffffffffff1916145b806105d957506105d882611370565b5b9050919050565b3373ffffffffffffffffffffffffffffffffffffffff166105ff610f74565b73ffffffffffffffffffffffffffffffffffffffff16148061063157506106303360046114cc90919063ffffffff16565b5b610670576040517f08c379a000000000000000000000000000000000000000000000000000000000815260040161066790613c73565b60405180910390fd5b818160089190610681929190612dd1565b505050565b60606009805461069590613cc2565b80601f01602080910402602001604051908101604052809291908181526020018280546106c190613cc2565b801561070e5780601f106106e35761010080835404028352916020019161070e565b820191906000526020600020905b8154815290600101906020018083116106f157829003601f168201915b5050505050905090565b60606008610725836114fc565b604051602001610736929190613e0f565b6040516020818303038152906040529050919050565b3373ffffffffffffffffffffffffffffffffffffffff1661076b610f74565b73ffffffffffffffffffffffffffffffffffffffff16148061079d575061079c3360046114cc90919063ffffffff16565b5b6107dc576040517f08c379a00000000000000000000000000000000000000000000000000000000081526004016107d390613c73565b60405180910390fd5b61081d8383836040518060400160405280600381526020017f307830000000000000000000000000000000000000000000000000000000000081525061165c565b505050565b60008173ffffffffffffffffffffffffffffffffffffffff16610843610f74565b73ffffffffffffffffffffffffffffffffffffffff16148061087557506108748260046114cc90919063ffffffff16565b5b9050919050565b6108846117f2565b73ffffffffffffffffffffffffffffffffffffffff166108a2610f74565b73ffffffffffffffffffffffffffffffffffffffff16146108f8576040517f08c379a00000000000000000000000000000000000000000000000000000000081526004016108ef90613e8a565b60405180910390fd5b61090c8160046114cc90919063ffffffff16565b15610981573373ffffffffffffffffffffffffffffffffffffffff168173ffffffffffffffffffffffffffffffffffffffff167f7c0c3c84c67c85fcac635147348bfe374c24a1a93d0366d1cfe9d8853cbf89d560405160405180910390a361097f8160046117fa90919063ffffffff16565b505b50565b61098c6117f2565b73ffffffffffffffffffffffffffffffffffffffff168573ffffffffffffffffffffffffffffffffffffffff1614806109d257506109d1856109cc6117f2565b611144565b5b610a11576040517f08c379a0000000000000000000000000000000000000000000000000000000008152600401610a0890613f1c565b60405180910390fd5b610a1e858585858561182a565b5050505050565b6060610a316004611b40565b67ffffffffffffffff811115610a4a57610a4961325b565b5b604051908082528060200260200182016040528015610a785781602001602082028036833780820191505090505b50905060005b610a886004611b40565b811015610b0357610aa3816004611b5590919063ffffffff16565b828281518110610ab657610ab5613f3c565b5b602002602001019073ffffffffffffffffffffffffffffffffffffffff16908173ffffffffffffffffffffffffffffffffffffffff16815250508080610afb90613f9a565b915050610a7e565b5090565b60608151835114610b4d576040517f08c379a0000000000000000000000000000000000000000000000000000000008152600401610b4490614054565b60405180910390fd5b6000835167ffffffffffffffff811115610b6a57610b6961325b565b5b604051908082528060200260200182016040528015610b985781602001602082028036833780820191505090505b50905060005b8451811015610c1557610be5858281518110610bbd57610bbc613f3c565b5b6020026020010151858381518110610bd857610bd7613f3c565b5b602002602001015161047d565b828281518110610bf857610bf7613f3c565b5b60200260200101818152505080610c0e90613f9a565b9050610b9e565b508091505092915050565b3373ffffffffffffffffffffffffffffffffffffffff16610c3f610f74565b73ffffffffffffffffffffffffffffffffffffffff161480610c715750610c703360046114cc90919063ffffffff16565b5b610cb0576040517f08c379a0000000000000000000000000000000000000000000000000000000008152600401610ca790613c73565b60405180910390fd5b8073ffffffffffffffffffffffffffffffffffffffff166108fc479081150290604051600060405180830381858888f19350505050158015610cf6573d6000803e3d6000fd5b5050565b610d026117f2565b73ffffffffffffffffffffffffffffffffffffffff16610d20610f74565b73ffffffffffffffffffffffffffffffffffffffff1614610d76576040517f08c379a0000000000000000000000000000000000000000000000000000000008152600401610d6d90613e8a565b60405180910390fd5b610d8a8160046114cc90919063ffffffff16565b610dfe573373ffffffffffffffffffffffffffffffffffffffff168173ffffffffffffffffffffffffffffffffffffffff167f7e1a1a08d52e4ba0e21554733d66165fd5151f99460116223d9e3a608eec5cb160405160405180910390a3610dfc816004611b6f90919063ffffffff16565b505b50565b610e096117f2565b73ffffffffffffffffffffffffffffffffffffffff16610e27610f74565b73ffffffffffffffffffffffffffffffffffffffff1614610e7d576040517f08c379a0000000000000000000000000000000000000000000000000000000008152600401610e7490613e8a565b60405180910390fd5b610e876000611b9f565b565b610e94338383611c63565b5050565b3373ffffffffffffffffffffffffffffffffffffffff16610eb7610f74565b73ffffffffffffffffffffffffffffffffffffffff161480610ee95750610ee83360046114cc90919063ffffffff16565b5b610f28576040517f08c379a0000000000000000000000000000000000000000000000000000000008152600401610f1f90613c73565b60405180910390fd5b81600760006101000a81548173ffffffffffffffffffffffffffffffffffffffff021916908373ffffffffffffffffffffffffffffffffffffffff160217905550806006819055505050565b60008060009054906101000a900473ffffffffffffffffffffffffffffffffffffffff16905090565b610faf610fa86117f2565b8383611f15565b5050565b610fbe338383612081565b5050565b600080600073ffffffffffffffffffffffffffffffffffffffff16600760009054906101000a900473ffffffffffffffffffffffffffffffffffffffff1673ffffffffffffffffffffffffffffffffffffffff161461106157600760009054906101000a900473ffffffffffffffffffffffffffffffffffffffff1660646006548561104e9190614074565b61105891906140fd565b91509150611069565b600080915091505b915091565b3373ffffffffffffffffffffffffffffffffffffffff1661108d610f74565b73ffffffffffffffffffffffffffffffffffffffff1614806110bf57506110be3360046114cc90919063ffffffff16565b5b6110fe576040517f08c379a00000000000000000000000000000000000000000000000000000000081526004016110f590613c73565b60405180910390fd5b61113f8383836040518060400160405280600381526020017f307830000000000000000000000000000000000000000000000000000000000081525061229f565b505050565b6000600260008473ffffffffffffffffffffffffffffffffffffffff1673ffffffffffffffffffffffffffffffffffffffff16815260200190815260200160002060008373ffffffffffffffffffffffffffffffffffffffff1673ffffffffffffffffffffffffffffffffffffffff16815260200190815260200160002060009054906101000a900460ff16905092915050565b6111e06117f2565b73ffffffffffffffffffffffffffffffffffffffff168573ffffffffffffffffffffffffffffffffffffffff1614806112265750611225856112206117f2565b611144565b5b611265576040517f08c379a000000000000000000000000000000000000000000000000000000000815260040161125c906141a0565b60405180910390fd5b61127285858585856124bd565b5050505050565b6112816117f2565b73ffffffffffffffffffffffffffffffffffffffff1661129f610f74565b73ffffffffffffffffffffffffffffffffffffffff16146112f5576040517f08c379a00000000000000000000000000000000000000000000000000000000081526004016112ec90613e8a565b60405180910390fd5b600073ffffffffffffffffffffffffffffffffffffffff168173ffffffffffffffffffffffffffffffffffffffff1603611364576040517f08c379a000000000000000000000000000000000000000000000000000000000815260040161135b90614232565b60405180910390fd5b61136d81611b9f565b50565b60007f553e757e000000000000000000000000000000000000000000000000000000007bffffffffffffffffffffffffffffffffffffffffffffffffffffffff1916827bffffffffffffffffffffffffffffffffffffffffffffffffffffffff191614806113e357506113e2826113ea565b5b9050919050565b60007fd9b67a26000000000000000000000000000000000000000000000000000000007bffffffffffffffffffffffffffffffffffffffffffffffffffffffff1916827bffffffffffffffffffffffffffffffffffffffffffffffffffffffff191614806114b557507f0e89341c000000000000000000000000000000000000000000000000000000007bffffffffffffffffffffffffffffffffffffffffffffffffffffffff1916827bffffffffffffffffffffffffffffffffffffffffffffffffffffffff1916145b806114c557506114c482612741565b5b9050919050565b60006114f4836000018373ffffffffffffffffffffffffffffffffffffffff1660001b6127ab565b905092915050565b606060008203611543576040518060400160405280600181526020017f30000000000000000000000000000000000000000000000000000000000000008152509050611657565b600082905060005b6000821461157557808061155e90613f9a565b915050600a8261156e91906140fd565b915061154b565b60008167ffffffffffffffff8111156115915761159061325b565b5b6040519080825280601f01601f1916602001820160405280156115c35781602001600182028036833780820191505090505b5090505b60008514611650576001826115dc9190614252565b9150600a856115eb9190614286565b60306115f791906142b7565b60f81b81838151811061160d5761160c613f3c565b5b60200101907effffffffffffffffffffffffffffffffffffffffffffffffffffffffffffff1916908160001a905350600a8561164991906140fd565b94506115c7565b8093505050505b919050565b600073ffffffffffffffffffffffffffffffffffffffff168473ffffffffffffffffffffffffffffffffffffffff16036116cb576040517f08c379a00000000000000000000000000000000000000000000000000000000081526004016116c29061437f565b60405180910390fd5b60006116d56117f2565b90506116f6816000876116e7886127ce565b6116f0886127ce565b87612848565b826001600086815260200190815260200160002060008773ffffffffffffffffffffffffffffffffffffffff1673ffffffffffffffffffffffffffffffffffffffff168152602001908152602001600020600082825461175691906142b7565b925050819055508473ffffffffffffffffffffffffffffffffffffffff16600073ffffffffffffffffffffffffffffffffffffffff168273ffffffffffffffffffffffffffffffffffffffff167fc3d58168c5ae7397731d063d5bbf3d657854427343f4c083240f7aacaa2d0f6287876040516117d492919061439f565b60405180910390a46117eb81600087878787612850565b5050505050565b600033905090565b6000611822836000018373ffffffffffffffffffffffffffffffffffffffff1660001b612a27565b905092915050565b815183511461186e576040517f08c379a00000000000000000000000000000000000000000000000000000000081526004016118659061443a565b60405180910390fd5b600073ffffffffffffffffffffffffffffffffffffffff168473ffffffffffffffffffffffffffffffffffffffff16036118dd576040517f08c379a00000000000000000000000000000000000000000000000000000000081526004016118d4906144cc565b60405180910390fd5b60006118e76117f2565b90506118f7818787878787612848565b60005b8451811015611aab57600085828151811061191857611917613f3c565b5b60200260200101519050600085838151811061193757611936613f3c565b5b6020026020010151905060006001600084815260200190815260200160002060008b73ffffffffffffffffffffffffffffffffffffffff1673ffffffffffffffffffffffffffffffffffffffff168152602001908152602001600020549050818110156119d9576040517f08c379a00000000000000000000000000000000000000000000000000000000081526004016119d09061455e565b60405180910390fd5b8181036001600085815260200190815260200160002060008c73ffffffffffffffffffffffffffffffffffffffff1673ffffffffffffffffffffffffffffffffffffffff16815260200190815260200160002081905550816001600085815260200190815260200160002060008b73ffffffffffffffffffffffffffffffffffffffff1673ffffffffffffffffffffffffffffffffffffffff1681526020019081526020016000206000828254611a9091906142b7565b9250508190555050505080611aa490613f9a565b90506118fa565b508473ffffffffffffffffffffffffffffffffffffffff168673ffffffffffffffffffffffffffffffffffffffff168273ffffffffffffffffffffffffffffffffffffffff167f4a39dc06d4c0dbc64b70af90fd698a233a518aa5d07e595d983b8c0526c8f7fb8787604051611b2292919061457e565b60405180910390a4611b38818787878787612b3b565b505050505050565b6000611b4e82600001612d12565b9050919050565b6000611b648360000183612d23565b60001c905092915050565b6000611b97836000018373ffffffffffffffffffffffffffffffffffffffff1660001b612d4e565b905092915050565b60008060009054906101000a900473ffffffffffffffffffffffffffffffffffffffff169050816000806101000a81548173ffffffffffffffffffffffffffffffffffffffff021916908373ffffffffffffffffffffffffffffffffffffffff1602179055508173ffffffffffffffffffffffffffffffffffffffff168173ffffffffffffffffffffffffffffffffffffffff167f8be0079c531659141344cd1fd0a4f28419497f9722a3daafe3b4186f6b6457e060405160405180910390a35050565b600073ffffffffffffffffffffffffffffffffffffffff168373ffffffffffffffffffffffffffffffffffffffff1603611cd2576040517f08c379a0000000000000000000000000000000000000000000000000000000008152600401611cc990614627565b60405180910390fd5b8051825114611d16576040517f08c379a0000000000000000000000000000000000000000000000000000000008152600401611d0d9061443a565b60405180910390fd5b6000611d206117f2565b9050611d4081856000868660405180602001604052806000815250612848565b60005b8351811015611e8f576000848281518110611d6157611d60613f3c565b5b602002602001015190506000848381518110611d8057611d7f613f3c565b5b6020026020010151905060006001600084815260200190815260200160002060008973ffffffffffffffffffffffffffffffffffffffff1673ffffffffffffffffffffffffffffffffffffffff16815260200190815260200160002054905081811015611e22576040517f08c379a0000000000000000000000000000000000000000000000000000000008152600401611e19906146b9565b60405180910390fd5b8181036001600085815260200190815260200160002060008a73ffffffffffffffffffffffffffffffffffffffff1673ffffffffffffffffffffffffffffffffffffffff168152602001908152602001600020819055505050508080611e8790613f9a565b915050611d43565b50600073ffffffffffffffffffffffffffffffffffffffff168473ffffffffffffffffffffffffffffffffffffffff168273ffffffffffffffffffffffffffffffffffffffff167f4a39dc06d4c0dbc64b70af90fd698a233a518aa5d07e595d983b8c0526c8f7fb8686604051611f0792919061457e565b60405180910390a450505050565b8173ffffffffffffffffffffffffffffffffffffffff168373ffffffffffffffffffffffffffffffffffffffff1603611f83576040517f08c379a0000000000000000000000000000000000000000000000000000000008152600401611f7a9061474b565b60405180910390fd5b80600260008573ffffffffffffffffffffffffffffffffffffffff1673ffffffffffffffffffffffffffffffffffffffff16815260200190815260200160002060008473ffffffffffffffffffffffffffffffffffffffff1673ffffffffffffffffffffffffffffffffffffffff16815260200190815260200160002060006101000a81548160ff0219169083151502179055508173ffffffffffffffffffffffffffffffffffffffff168373ffffffffffffffffffffffffffffffffffffffff167f17307eab39ab6107e8899845ad3d59bd9653f200f220920489ca2b5937696c31836040516120749190613026565b60405180910390a3505050565b600073ffffffffffffffffffffffffffffffffffffffff168373ffffffffffffffffffffffffffffffffffffffff16036120f0576040517f08c379a00000000000000000000000000000000000000000000000000000000081526004016120e790614627565b60405180910390fd5b60006120fa6117f2565b905061212a8185600061210c876127ce565b612115876127ce565b60405180602001604052806000815250612848565b60006001600085815260200190815260200160002060008673ffffffffffffffffffffffffffffffffffffffff1673ffffffffffffffffffffffffffffffffffffffff168152602001908152602001600020549050828110156121c2576040517f08c379a00000000000000000000000000000000000000000000000000000000081526004016121b9906146b9565b60405180910390fd5b8281036001600086815260200190815260200160002060008773ffffffffffffffffffffffffffffffffffffffff1673ffffffffffffffffffffffffffffffffffffffff16815260200190815260200160002081905550600073ffffffffffffffffffffffffffffffffffffffff168573ffffffffffffffffffffffffffffffffffffffff168373ffffffffffffffffffffffffffffffffffffffff167fc3d58168c5ae7397731d063d5bbf3d657854427343f4c083240f7aacaa2d0f62878760405161229092919061439f565b60405180910390a45050505050565b600073ffffffffffffffffffffffffffffffffffffffff168473ffffffffffffffffffffffffffffffffffffffff160361230e576040517f08c379a00000000000000000000000000000000000000000000000000000000081526004016123059061437f565b60405180910390fd5b8151835114612352576040517f08c379a00000000000000000000000000000000000000000000000000000000081526004016123499061443a565b60405180910390fd5b600061235c6117f2565b905061236d81600087878787612848565b60005b84518110156124275783818151811061238c5761238b613f3c565b5b6020026020010151600160008784815181106123ab576123aa613f3c565b5b6020026020010151815260200190815260200160002060008873ffffffffffffffffffffffffffffffffffffffff1673ffffffffffffffffffffffffffffffffffffffff168152602001908152602001600020600082825461240d91906142b7565b92505081905550808061241f90613f9a565b915050612370565b508473ffffffffffffffffffffffffffffffffffffffff16600073ffffffffffffffffffffffffffffffffffffffff168273ffffffffffffffffffffffffffffffffffffffff167f4a39dc06d4c0dbc64b70af90fd698a233a518aa5d07e595d983b8c0526c8f7fb878760405161249f92919061457e565b60405180910390a46124b681600087878787612b3b565b5050505050565b600073ffffffffffffffffffffffffffffffffffffffff168473ffffffffffffffffffffffffffffffffffffffff160361252c576040517f08c379a0000000000000000000000000000000000000000000000000000000008152600401612523906144cc565b60405180910390fd5b60006125366117f2565b9050612556818787612547886127ce565b612550886127ce565b87612848565b60006001600086815260200190815260200160002060008873ffffffffffffffffffffffffffffffffffffffff1673ffffffffffffffffffffffffffffffffffffffff168152602001908152602001600020549050838110156125ee576040517f08c379a00000000000000000000000000000000000000000000000000000000081526004016125e59061455e565b60405180910390fd5b8381036001600087815260200190815260200160002060008973ffffffffffffffffffffffffffffffffffffffff1673ffffffffffffffffffffffffffffffffffffffff16815260200190815260200160002081905550836001600087815260200190815260200160002060008873ffffffffffffffffffffffffffffffffffffffff1673ffffffffffffffffffffffffffffffffffffffff16815260200190815260200160002060008282546126a591906142b7565b925050819055508573ffffffffffffffffffffffffffffffffffffffff168773ffffffffffffffffffffffffffffffffffffffff168373ffffffffffffffffffffffffffffffffffffffff167fc3d58168c5ae7397731d063d5bbf3d657854427343f4c083240f7aacaa2d0f62888860405161272292919061439f565b60405180910390a4612738828888888888612850565b50505050505050565b60007f01ffc9a7000000000000000000000000000000000000000000000000000000007bffffffffffffffffffffffffffffffffffffffffffffffffffffffff1916827bffffffffffffffffffffffffffffffffffffffffffffffffffffffff1916149050919050565b600080836001016000848152602001908152602001600020541415905092915050565b60606000600167ffffffffffffffff8111156127ed576127ec61325b565b5b60405190808252806020026020018201604052801561281b5781602001602082028036833780820191505090505b509050828160008151811061283357612832613f3c565b5b60200260200101818152505080915050919050565b505050505050565b61286f8473ffffffffffffffffffffffffffffffffffffffff16612dbe565b15612a1f578373ffffffffffffffffffffffffffffffffffffffff1663f23a6e6187878686866040518663ffffffff1660e01b81526004016128b59594939291906147c0565b6020604051808303816000875af19250505080156128f157506040513d601f19601f820116820180604052508101906128ee919061482f565b60015b612996576128fd614869565b806308c379a003612959575061291161488b565b8061291c575061295b565b806040517f08c379a0000000000000000000000000000000000000000000000000000000008152600401612950919061318c565b60405180910390fd5b505b6040517f08c379a000000000000000000000000000000000000000000000000000000000815260040161298d9061498d565b60405180910390fd5b63f23a6e6160e01b7bffffffffffffffffffffffffffffffffffffffffffffffffffffffff1916817bffffffffffffffffffffffffffffffffffffffffffffffffffffffff191614612a1d576040517f08c379a0000000000000000000000000000000000000000000000000000000008152600401612a1490614a1f565b60405180910390fd5b505b505050505050565b60008083600101600084815260200190815260200160002054905060008114612b2f576000600182612a599190614252565b9050600060018660000180549050612a719190614252565b9050818114612ae0576000866000018281548110612a9257612a91613f3c565b5b9060005260206000200154905080876000018481548110612ab657612ab5613f3c565b5b90600052602060002001819055508387600101600083815260200190815260200160002081905550505b85600001805480612af457612af3614a3f565b5b600190038181906000526020600020016000905590558560010160008681526020019081526020016000206000905560019350505050612b35565b60009150505b92915050565b612b5a8473ffffffffffffffffffffffffffffffffffffffff16612dbe565b15612d0a578373ffffffffffffffffffffffffffffffffffffffff1663bc197c8187878686866040518663ffffffff1660e01b8152600401612ba0959493929190614a6e565b6020604051808303816000875af1925050508015612bdc57506040513d601f19601f82011682018060405250810190612bd9919061482f565b60015b612c8157612be8614869565b806308c379a003612c445750612bfc61488b565b80612c075750612c46565b806040517f08c379a0000000000000000000000000000000000000000000000000000000008152600401612c3b919061318c565b60405180910390fd5b505b6040517f08c379a0000000000000000000000000000000000000000000000000000000008152600401612c789061498d565b60405180910390fd5b63bc197c8160e01b7bffffffffffffffffffffffffffffffffffffffffffffffffffffffff1916817bffffffffffffffffffffffffffffffffffffffffffffffffffffffff191614612d08576040517f08c379a0000000000000000000000000000000000000000000000000000000008152600401612cff90614a1f565b60405180910390fd5b505b505050505050565b600081600001805490509050919050565b6000826000018281548110612d3b57612d3a613f3c565b5b9060005260206000200154905092915050565b6000612d5a83836127ab565b612db3578260000182908060018154018082558091505060019003906000526020600020016000909190919091505582600001805490508360010160008481526020019081526020016000208190555060019050612db8565b600090505b92915050565b600080823b905060008111915050919050565b828054612ddd90613cc2565b90600052602060002090601f016020900481019282612dff5760008555612e46565b82601f10612e1857803560ff1916838001178555612e46565b82800160010185558215612e46579182015b82811115612e45578235825591602001919060010190612e2a565b5b509050612e539190612e57565b5090565b5b80821115612e70576000816000905550600101612e58565b5090565b6000604051905090565b600080fd5b600080fd5b600073ffffffffffffffffffffffffffffffffffffffff82169050919050565b6000612eb382612e88565b9050919050565b612ec381612ea8565b8114612ece57600080fd5b50565b600081359050612ee081612eba565b92915050565b6000819050919050565b612ef981612ee6565b8114612f0457600080fd5b50565b600081359050612f1681612ef0565b92915050565b60008060408385031215612f3357612f32612e7e565b5b6000612f4185828601612ed1565b9250506020612f5285828601612f07565b9150509250929050565b612f6581612ee6565b82525050565b6000602082019050612f806000830184612f5c565b92915050565b60007fffffffff0000000000000000000000000000000000000000000000000000000082169050919050565b612fbb81612f86565b8114612fc657600080fd5b50565b600081359050612fd881612fb2565b92915050565b600060208284031215612ff457612ff3612e7e565b5b600061300284828501612fc9565b91505092915050565b60008115159050919050565b6130208161300b565b82525050565b600060208201905061303b6000830184613017565b92915050565b600080fd5b600080fd5b600080fd5b60008083601f84011261306657613065613041565b5b8235905067ffffffffffffffff81111561308357613082613046565b5b60208301915083600182028301111561309f5761309e61304b565b5b9250929050565b600080602083850312156130bd576130bc612e7e565b5b600083013567ffffffffffffffff8111156130db576130da612e83565b5b6130e785828601613050565b92509250509250929050565b600081519050919050565b600082825260208201905092915050565b60005b8381101561312d578082015181840152602081019050613112565b8381111561313c576000848401525b50505050565b6000601f19601f8301169050919050565b600061315e826130f3565b61316881856130fe565b935061317881856020860161310f565b61318181613142565b840191505092915050565b600060208201905081810360008301526131a68184613153565b905092915050565b6000602082840312156131c4576131c3612e7e565b5b60006131d284828501612f07565b91505092915050565b6000806000606084860312156131f4576131f3612e7e565b5b600061320286828701612ed1565b935050602061321386828701612f07565b925050604061322486828701612f07565b9150509250925092565b60006020828403121561324457613243612e7e565b5b600061325284828501612ed1565b91505092915050565b7f4e487b7100000000000000000000000000000000000000000000000000000000600052604160045260246000fd5b61329382613142565b810181811067ffffffffffffffff821117156132b2576132b161325b565b5b80604052505050565b60006132c5612e74565b90506132d1828261328a565b919050565b600067ffffffffffffffff8211156132f1576132f061325b565b5b602082029050602081019050919050565b6000613315613310846132d6565b6132bb565b905080838252602082019050602084028301858111156133385761333761304b565b5b835b81811015613361578061334d8882612f07565b84526020840193505060208101905061333a565b5050509392505050565b600082601f8301126133805761337f613041565b5b8135613390848260208601613302565b91505092915050565b600080fd5b600067ffffffffffffffff8211156133b9576133b861325b565b5b6133c282613142565b9050602081019050919050565b82818337600083830152505050565b60006133f16133ec8461339e565b6132bb565b90508281526020810184848401111561340d5761340c613399565b5b6134188482856133cf565b509392505050565b600082601f83011261343557613434613041565b5b81356134458482602086016133de565b91505092915050565b600080600080600060a0868803121561346a57613469612e7e565b5b600061347888828901612ed1565b955050602061348988828901612ed1565b945050604086013567ffffffffffffffff8111156134aa576134a9612e83565b5b6134b68882890161336b565b935050606086013567ffffffffffffffff8111156134d7576134d6612e83565b5b6134e38882890161336b565b925050608086013567ffffffffffffffff81111561350457613503612e83565b5b61351088828901613420565b9150509295509295909350565b600081519050919050565b600082825260208201905092915050565b6000819050602082019050919050565b61355281612ea8565b82525050565b60006135648383613549565b60208301905092915050565b6000602082019050919050565b60006135888261351d565b6135928185613528565b935061359d83613539565b8060005b838110156135ce5781516135b58882613558565b97506135c083613570565b9250506001810190506135a1565b5085935050505092915050565b600060208201905081810360008301526135f5818461357d565b905092915050565b600067ffffffffffffffff8211156136185761361761325b565b5b602082029050602081019050919050565b600061363c613637846135fd565b6132bb565b9050808382526020820190506020840283018581111561365f5761365e61304b565b5b835b8181101561368857806136748882612ed1565b845260208401935050602081019050613661565b5050509392505050565b600082601f8301126136a7576136a6613041565b5b81356136b7848260208601613629565b91505092915050565b600080604083850312156136d7576136d6612e7e565b5b600083013567ffffffffffffffff8111156136f5576136f4612e83565b5b61370185828601613692565b925050602083013567ffffffffffffffff81111561372257613721612e83565b5b61372e8582860161336b565b9150509250929050565b600081519050919050565b600082825260208201905092915050565b6000819050602082019050919050565b61376d81612ee6565b82525050565b600061377f8383613764565b60208301905092915050565b6000602082019050919050565b60006137a382613738565b6137ad8185613743565b93506137b883613754565b8060005b838110156137e95781516137d08882613773565b97506137db8361378b565b9250506001810190506137bc565b5085935050505092915050565b600060208201905081810360008301526138108184613798565b905092915050565b6000806040838503121561382f5761382e612e7e565b5b600083013567ffffffffffffffff81111561384d5761384c612e83565b5b6138598582860161336b565b925050602083013567ffffffffffffffff81111561387a57613879612e83565b5b6138868582860161336b565b9150509250929050565b600061389b82612e88565b9050919050565b6138ab81613890565b81146138b657600080fd5b50565b6000813590506138c8816138a2565b92915050565b600080604083850312156138e5576138e4612e7e565b5b60006138f3858286016138b9565b925050602061390485828601612f07565b9150509250929050565b61391781612ea8565b82525050565b6000602082019050613932600083018461390e565b92915050565b6139418161300b565b811461394c57600080fd5b50565b60008135905061395e81613938565b92915050565b6000806040838503121561397b5761397a612e7e565b5b600061398985828601612ed1565b925050602061399a8582860161394f565b9150509250929050565b600080604083850312156139bb576139ba612e7e565b5b60006139c985828601612f07565b92505060206139da85828601612f07565b9150509250929050565b60006040820190506139f9600083018561390e565b613a066020830184612f5c565b9392505050565b600080600060608486031215613a2657613a25612e7e565b5b6000613a3486828701612ed1565b935050602084013567ffffffffffffffff811115613a5557613a54612e83565b5b613a618682870161336b565b925050604084013567ffffffffffffffff811115613a8257613a81612e83565b5b613a8e8682870161336b565b9150509250925092565b60008060408385031215613aaf57613aae612e7e565b5b6000613abd85828601612ed1565b9250506020613ace85828601612ed1565b9150509250929050565b600080600080600060a08688031215613af457613af3612e7e565b5b6000613b0288828901612ed1565b9550506020613b1388828901612ed1565b9450506040613b2488828901612f07565b9350506060613b3588828901612f07565b925050608086013567ffffffffffffffff811115613b5657613b55612e83565b5b613b6288828901613420565b9150509295509295909350565b7f455243313135353a2062616c616e636520717565727920666f7220746865207a60008201527f65726f2061646472657373000000000000000000000000000000000000000000602082015250565b6000613bcb602b836130fe565b9150613bd682613b6f565b604082019050919050565b60006020820190508181036000830152613bfa81613bbe565b9050919050565b7f41646d696e436f6e74726f6c3a204d757374206265206f776e6572206f72206160008201527f646d696e00000000000000000000000000000000000000000000000000000000602082015250565b6000613c5d6024836130fe565b9150613c6882613c01565b604082019050919050565b60006020820190508181036000830152613c8c81613c50565b9050919050565b7f4e487b7100000000000000000000000000000000000000000000000000000000600052602260045260246000fd5b60006002820490506001821680613cda57607f821691505b602082108103613ced57613cec613c93565b5b50919050565b600081905092915050565b60008190508160005260206000209050919050565b60008154613d2081613cc2565b613d2a8186613cf3565b94506001821660008114613d455760018114613d5657613d89565b60ff19831686528186019350613d89565b613d5f85613cfe565b60005b83811015613d8157815481890152600182019150602081019050613d62565b838801955050505b50505092915050565b6000613d9d826130f3565b613da78185613cf3565b9350613db781856020860161310f565b80840191505092915050565b7f2e6a736f6e000000000000000000000000000000000000000000000000000000600082015250565b6000613df9600583613cf3565b9150613e0482613dc3565b600582019050919050565b6000613e1b8285613d13565b9150613e278284613d92565b9150613e3282613dec565b91508190509392505050565b7f4f776e61626c653a2063616c6c6572206973206e6f7420746865206f776e6572600082015250565b6000613e746020836130fe565b9150613e7f82613e3e565b602082019050919050565b60006020820190508181036000830152613ea381613e67565b9050919050565b7f455243313135353a207472616e736665722063616c6c6572206973206e6f742060008201527f6f776e6572206e6f7220617070726f7665640000000000000000000000000000602082015250565b6000613f066032836130fe565b9150613f1182613eaa565b604082019050919050565b60006020820190508181036000830152613f3581613ef9565b9050919050565b7f4e487b7100000000000000000000000000000000000000000000000000000000600052603260045260246000fd5b7f4e487b7100000000000000000000000000000000000000000000000000000000600052601160045260246000fd5b6000613fa582612ee6565b91507fffffffffffffffffffffffffffffffffffffffffffffffffffffffffffffffff8203613fd757613fd6613f6b565b5b600182019050919050565b7f455243313135353a206163636f756e747320616e6420696473206c656e67746860008201527f206d69736d617463680000000000000000000000000000000000000000000000602082015250565b600061403e6029836130fe565b915061404982613fe2565b604082019050919050565b6000602082019050818103600083015261406d81614031565b9050919050565b600061407f82612ee6565b915061408a83612ee6565b9250817fffffffffffffffffffffffffffffffffffffffffffffffffffffffffffffffff04831182151516156140c3576140c2613f6b565b5b828202905092915050565b7f4e487b7100000000000000000000000000000000000000000000000000000000600052601260045260246000fd5b600061410882612ee6565b915061411383612ee6565b925082614123576141226140ce565b5b828204905092915050565b7f455243313135353a2063616c6c6572206973206e6f74206f776e6572206e6f7260008201527f20617070726f7665640000000000000000000000000000000000000000000000602082015250565b600061418a6029836130fe565b91506141958261412e565b604082019050919050565b600060208201905081810360008301526141b98161417d565b9050919050565b7f4f776e61626c653a206e6577206f776e657220697320746865207a65726f206160008201527f6464726573730000000000000000000000000000000000000000000000000000602082015250565b600061421c6026836130fe565b9150614227826141c0565b604082019050919050565b6000602082019050818103600083015261424b8161420f565b9050919050565b600061425d82612ee6565b915061426883612ee6565b92508282101561427b5761427a613f6b565b5b828203905092915050565b600061429182612ee6565b915061429c83612ee6565b9250826142ac576142ab6140ce565b5b828206905092915050565b60006142c282612ee6565b91506142cd83612ee6565b9250827fffffffffffffffffffffffffffffffffffffffffffffffffffffffffffffffff0382111561430257614301613f6b565b5b828201905092915050565b7f455243313135353a206d696e7420746f20746865207a65726f2061646472657360008201527f7300000000000000000000000000000000000000000000000000000000000000602082015250565b60006143696021836130fe565b91506143748261430d565b604082019050919050565b600060208201905081810360008301526143988161435c565b9050919050565b60006040820190506143b46000830185612f5c565b6143c16020830184612f5c565b9392505050565b7f455243313135353a2069647320616e6420616d6f756e7473206c656e6774682060008201527f6d69736d61746368000000000000000000000000000000000000000000000000602082015250565b60006144246028836130fe565b915061442f826143c8565b604082019050919050565b6000602082019050818103600083015261445381614417565b9050919050565b7f455243313135353a207472616e7366657220746f20746865207a65726f20616460008201527f6472657373000000000000000000000000000000000000000000000000000000602082015250565b60006144b66025836130fe565b91506144c18261445a565b604082019050919050565b600060208201905081810360008301526144e5816144a9565b9050919050565b7f455243313135353a20696e73756666696369656e742062616c616e636520666f60008201527f72207472616e7366657200000000000000000000000000000000000000000000602082015250565b6000614548602a836130fe565b9150614553826144ec565b604082019050919050565b600060208201905081810360008301526145778161453b565b9050919050565b600060408201905081810360008301526145988185613798565b905081810360208301526145ac8184613798565b90509392505050565b7f455243313135353a206275726e2066726f6d20746865207a65726f206164647260008201527f6573730000000000000000000000000000000000000000000000000000000000602082015250565b60006146116023836130fe565b915061461c826145b5565b604082019050919050565b6000602082019050818103600083015261464081614604565b9050919050565b7f455243313135353a206275726e20616d6f756e7420657863656564732062616c60008201527f616e636500000000000000000000000000000000000000000000000000000000602082015250565b60006146a36024836130fe565b91506146ae82614647565b604082019050919050565b600060208201905081810360008301526146d281614696565b9050919050565b7f455243313135353a2073657474696e6720617070726f76616c2073746174757360008201527f20666f722073656c660000000000000000000000000000000000000000000000602082015250565b60006147356029836130fe565b9150614740826146d9565b604082019050919050565b6000602082019050818103600083015261476481614728565b9050919050565b600081519050919050565b600082825260208201905092915050565b60006147928261476b565b61479c8185614776565b93506147ac81856020860161310f565b6147b581613142565b840191505092915050565b600060a0820190506147d5600083018861390e565b6147e2602083018761390e565b6147ef6040830186612f5c565b6147fc6060830185612f5c565b818103608083015261480e8184614787565b90509695505050505050565b60008151905061482981612fb2565b92915050565b60006020828403121561484557614844612e7e565b5b60006148538482850161481a565b91505092915050565b60008160e01c9050919050565b600060033d11156148885760046000803e61488560005161485c565b90505b90565b600060443d106149185761489d612e74565b60043d036004823e80513d602482011167ffffffffffffffff821117156148c5575050614918565b808201805167ffffffffffffffff8111156148e35750505050614918565b80602083010160043d038501811115614900575050505050614918565b61490f8260200185018661328a565b82955050505050505b90565b7f455243313135353a207472616e7366657220746f206e6f6e204552433131353560008201527f526563656976657220696d706c656d656e746572000000000000000000000000602082015250565b60006149776034836130fe565b91506149828261491b565b604082019050919050565b600060208201905081810360008301526149a68161496a565b9050919050565b7f455243313135353a204552433131353552656365697665722072656a6563746560008201527f6420746f6b656e73000000000000000000000000000000000000000000000000602082015250565b6000614a096028836130fe565b9150614a14826149ad565b604082019050919050565b60006020820190508181036000830152614a38816149fc565b9050919050565b7f4e487b7100000000000000000000000000000000000000000000000000000000600052603160045260246000fd5b600060a082019050614a83600083018861390e565b614a90602083018761390e565b8181036040830152614aa28186613798565b90508181036060830152614ab68185613798565b90508181036080830152614aca8184614787565b9050969550505050505056fea2646970667358221220593dab766c252a29987b3130fc6452fd1c6922686ac9dcf6a4890a0aecfa899e64736f6c634300080d0033",
  "immutableReferences": {},
  "source": "// SPDX-License-Identifier: MIT\n\npragma solidity >= 0.8.13;\n\nimport \"@openzeppelin/contracts/token/ERC1155/ERC1155.sol\";\nimport \"@manifoldxyz/royalty-registry-solidity/contracts/specs/IEIP2981.sol\";\nimport \"@manifoldxyz/libraries-solidity/contracts/access/AdminControl.sol\";\nimport \"@openzeppelin/contracts/utils/Strings.sol\";\n\ncontract OSContract is ERC1155, AdminControl {\n    \n    uint256 private _royaltyAmount; //in % \n    address payable  private _royalties_recipient;\n    string _uri;\n    string _name;\n\n    \n    constructor () ERC1155(\"\") {\n        _royalties_recipient = payable(msg.sender);\n        _royaltyAmount = 10;\n\n    } \n\n    function supportsInterface(bytes4 interfaceId)\n        public\n        view\n        virtual\n        override(ERC1155, AdminControl)\n        returns (bool)\n    {\n        return\n        AdminControl.supportsInterface(interfaceId) ||\n        ERC1155.supportsInterface(interfaceId) ||\n        interfaceId == type(IEIP2981).interfaceId ||\n        super.supportsInterface(interfaceId);\n    }\n\n    function name() public view returns (string memory) {\n        return _name;\n    }\n\n    function mint( \n        address to,\n        uint256 id,\n        uint256 amount\n    ) external adminRequired{\n        _mint(to, id, amount, \"0x0\");\n    }\n\n    function mintBatch(\n        address to,\n        uint256[] memory ids,\n        uint256[] memory amounts\n    )external adminRequired{\n        _mintBatch(to, ids, amounts, \"0x0\");\n    }\n\n    function setURI(\n        string calldata updatedURI\n    ) external adminRequired{\n        _uri = updatedURI;\n    }\n\n    function uri(uint256 tokenId) public view virtual override returns (string memory) {\n        return string(abi.encodePacked(_uri, Strings.toString(tokenId), \".json\"));\n    }\n\n    function burn(uint256 tokenId, uint256 quantity) public {\n        _burn(msg.sender, tokenId, quantity);\n    }\n\n    function burnBatch(\n        uint256[] memory ids,\n        uint256[] memory amounts\n    )external{\n        _burnBatch(msg.sender, ids, amounts);\n    }\n\n    function setRoyalties(address payable _recipient, uint256 _royaltyPerCent) external adminRequired {\n        _royalties_recipient = _recipient;\n        _royaltyAmount = _royaltyPerCent;\n    }\n\n    function royaltyInfo(uint256 salePrice) external view returns (address, uint256) {\n        if(_royalties_recipient != address(0)){\n            return (_royalties_recipient, (salePrice * _royaltyAmount) / 100 );\n        }\n        return (address(0), 0);\n    }\n\n    function withdraw(address recipient) external adminRequired {\n        payable(recipient).transfer(address(this).balance);\n    }\n\n}",
  "sourcePath": "/Users/bct/Documents/Dev/NFT_dev/DK/contracts/OSContract.sol",
  "compiler": {
    "name": "solc",
    "version": "0.8.13+commit.abaa5c0e.Emscripten.clang"
  },
  "schemaVersion": "3.4.4",
  "updatedAt": "2022-08-04T21:54:50.927Z",
  "devdoc": {
    "kind": "dev",
    "methods": {
      "approveAdmin(address)": {
        "details": "See {IAdminControl-approveAdmin}."
      },
      "balanceOf(address,uint256)": {
        "details": "See {IERC1155-balanceOf}. Requirements: - `account` cannot be the zero address."
      },
      "balanceOfBatch(address[],uint256[])": {
        "details": "See {IERC1155-balanceOfBatch}. Requirements: - `accounts` and `ids` must have the same length."
      },
      "getAdmins()": {
        "details": "See {IAdminControl-getAdmins}."
      },
      "isAdmin(address)": {
        "details": "See {IAdminControl-isAdmin}."
      },
      "isApprovedForAll(address,address)": {
        "details": "See {IERC1155-isApprovedForAll}."
      },
      "owner()": {
        "details": "Returns the address of the current owner."
      },
      "renounceOwnership()": {
        "details": "Leaves the contract without owner. It will not be possible to call `onlyOwner` functions anymore. Can only be called by the current owner. NOTE: Renouncing ownership will leave the contract without an owner, thereby removing any functionality that is only available to the owner."
      },
      "revokeAdmin(address)": {
        "details": "See {IAdminControl-revokeAdmin}."
      },
      "safeBatchTransferFrom(address,address,uint256[],uint256[],bytes)": {
        "details": "See {IERC1155-safeBatchTransferFrom}."
      },
      "safeTransferFrom(address,address,uint256,uint256,bytes)": {
        "details": "See {IERC1155-safeTransferFrom}."
      },
      "setApprovalForAll(address,bool)": {
        "details": "See {IERC1155-setApprovalForAll}."
      },
      "transferOwnership(address)": {
        "details": "Transfers ownership of the contract to a new account (`newOwner`). Can only be called by the current owner."
      }
    },
    "version": 1
  },
  "userdoc": {
    "kind": "user",
    "methods": {},
    "version": 1
  }
}